

Microchip Technology PIC PRO Macro Assembler V1.45 build -152302408 
                                                                                               Wed Feb 12 17:28:30 2020

Microchip Technology Omniscient Code Generator v1.45 (PRO mode) build 201711160504
     1                           	processor	16F15376
     2                           	opt	pw 120
     3                           	opt	pm
     4                           	psect	idataBANK1,global,class=CODE,delta=2
     5                           	psect	idataBANK3,global,class=CODE,delta=2
     6                           	psect	idataBANK6,global,class=CODE,delta=2
     7                           	psect	stringtext1,global,class=STRCODE,delta=2
     8                           	psect	stringtext2,global,class=STRCODE,delta=2
     9                           	psect	stringtext3,global,class=STRCODE,delta=2
    10                           	psect	stringtext4,global,class=STRCODE,delta=2
    11                           	psect	stringtext5,global,class=STRCODE,delta=2
    12                           	psect	cinit,global,class=CODE,merge=1,delta=2
    13                           	psect	bssCOMMON,global,class=COMMON,space=1,delta=1
    14                           	psect	bssBANK0,global,class=BANK0,space=1,delta=1
    15                           	psect	bssBANK1,global,class=BANK1,space=1,delta=1
    16                           	psect	dataBANK1,global,class=BANK1,space=1,delta=1
    17                           	psect	bssBANK2,global,class=BANK2,space=1,delta=1
    18                           	psect	bssBANK3,global,class=BANK3,space=1,delta=1
    19                           	psect	dataBANK3,global,class=BANK3,space=1,delta=1
    20                           	psect	bssBANK4,global,class=BANK4,space=1,delta=1
    21                           	psect	bssBANK5,global,class=BANK5,space=1,delta=1
    22                           	psect	bssBANK6,global,class=BANK6,space=1,delta=1
    23                           	psect	dataBANK6,global,class=BANK6,space=1,delta=1
    24                           	psect	bssBANK7,global,class=BANK7,space=1,delta=1
    25                           	psect	bssBANK8,global,class=BANK8,space=1,delta=1
    26                           	psect	inittext,global,class=CODE,delta=2
    27                           	psect	clrtext,global,class=CODE,delta=2
    28                           	psect	cstackBANK1,global,class=BANK1,space=1,delta=1
    29                           	psect	cstackCOMMON,global,class=COMMON,space=1,delta=1
    30                           	psect	cstackBANK0,global,class=BANK0,space=1,delta=1
    31                           	psect	text3,local,class=CODE,merge=1,delta=2
    32                           	psect	text36,local,class=CODE,merge=1,delta=2
    33                           	psect	text39,local,class=CODE,merge=1,delta=2
    34                           	psect	text44,local,class=CODE,merge=1,delta=2
    35                           	psect	text70,local,class=CODE,merge=1,inline,delta=2
    36                           	psect	text73,local,class=CODE,merge=1,delta=2
    37                           	psect	swtext1,local,class=CONST,delta=2
    38                           	psect	text75,local,class=CODE,merge=1,delta=2
    39                           	psect	swtext2,local,class=CONST,delta=2
    40                           	psect	text80,local,class=CODE,merge=1,delta=2,group=1
    41                           	psect	intentry,global,class=CODE,delta=2
    42                           	psect	text89,local,class=CODE,merge=1,delta=2
    43                           	psect	swtext3,local,class=CONST,delta=2
    44                           	psect	text92,local,class=CODE,merge=1,delta=2
    45                           	psect	swtext4,local,class=CONST,delta=2
    46                           	psect	text95,local,class=CODE,merge=1,delta=2
    47                           	psect	pa_nodes0,global,class=CODE,delta=2
    48                           	psect	text3_split_1,local,class=CODE,merge=1,delta=2
    49                           	dabs	1,0x7E,2
    50  0000                     
    51                           ; Version 1.45
    52                           ; Generated 16/11/2017 GMT
    53                           ; 
    54                           ; Copyright © 2017, Microchip Technology Inc. and its subsidiaries ("Microchip")
    55                           ; All rights reserved.
    56                           ; 
    57                           ; This software is developed by Microchip Technology Inc. and its subsidiaries ("Microch
      +                          ip").
    58                           ; 
    59                           ; Redistribution and use in source and binary forms, with or without modification, are
    60                           ; permitted provided that the following conditions are met:
    61                           ; 
    62                           ;     1. Redistributions of source code must retain the above copyright notice, this lis
      +                          t of
    63                           ;        conditions and the following disclaimer.
    64                           ; 
    65                           ;     2. Redistributions in binary form must reproduce the above copyright notice, this 
      +                          list
    66                           ;        of conditions and the following disclaimer in the documentation and/or other
    67                           ;        materials provided with the distribution.
    68                           ; 
    69                           ;     3. Microchip's name may not be used to endorse or promote products derived from th
      +                          is
    70                           ;        software without specific prior written permission.
    71                           ; 
    72                           ; THIS SOFTWARE IS PROVIDED BY MICROCHIP "AS IS" AND ANY EXPRESS OR IMPLIED WARRANTIES,
    73                           ; INCLUDING, BUT NOT LIMITED TO, THE IMPLIED WARRANTIES OF MERCHANTABILITY AND FITNESS F
      +                          OR
    74                           ; PURPOSE ARE DISCLAIMED.  IN NO EVENT SHALL MICROCHIP BE LIABLE FOR ANY DIRECT, INDIREC
      +                          T,
    75                           ; INCIDENTAL, SPECIAL, EXEMPLARY, OR CONSEQUENTIAL DAMAGES (INCLUDING BUT NOT LIMITED TO
    76                           ; PROCUREMENT OF SUBSTITUTE GOODS OR SERVICES; LOSS OF USE, DATA OR PROFITS; OR BUSINESS
    77                           ; INTERRUPTION) HOWSOEVER CAUSED AND ON ANY THEORY OF LIABILITY, WHETHER IN CONTRACT, ST
      +                          RICT
    78                           ; LIABILITY, OR TORT (INCLUDING NEGLIGENCE OR OTHERWISE) ARISING IN ANY WAY OUT OF THE U
      +                          SE OF
    79                           ; THIS SOFTWARE, EVEN IF ADVISED OF THE POSSIBILITY OF SUCH DAMAGE.
    80                           ; 
    81                           ; 
    82                           ; Code-generator required, PIC16F15376 Definitions
    83                           ; 
    84                           ; SFR Addresses
    85  0000                     	;# 
    86  0001                     	;# 
    87  0002                     	;# 
    88  0003                     	;# 
    89  0004                     	;# 
    90  0005                     	;# 
    91  0006                     	;# 
    92  0007                     	;# 
    93  0008                     	;# 
    94  0009                     	;# 
    95  000A                     	;# 
    96  000B                     	;# 
    97  000C                     	;# 
    98  000D                     	;# 
    99  000E                     	;# 
   100  000F                     	;# 
   101  0010                     	;# 
   102  0012                     	;# 
   103  0013                     	;# 
   104  0014                     	;# 
   105  0015                     	;# 
   106  0016                     	;# 
   107  0018                     	;# 
   108  0019                     	;# 
   109  001A                     	;# 
   110  001B                     	;# 
   111  001C                     	;# 
   112  009B                     	;# 
   113  009B                     	;# 
   114  009C                     	;# 
   115  009D                     	;# 
   116  009E                     	;# 
   117  009F                     	;# 
   118  0119                     	;# 
   119  0119                     	;# 
   120  0119                     	;# 
   121  011A                     	;# 
   122  011A                     	;# 
   123  011A                     	;# 
   124  011B                     	;# 
   125  011B                     	;# 
   126  011B                     	;# 
   127  011B                     	;# 
   128  011B                     	;# 
   129  011C                     	;# 
   130  011C                     	;# 
   131  011C                     	;# 
   132  011D                     	;# 
   133  011D                     	;# 
   134  011D                     	;# 
   135  011E                     	;# 
   136  011E                     	;# 
   137  011E                     	;# 
   138  011F                     	;# 
   139  011F                     	;# 
   140  011F                     	;# 
   141  011F                     	;# 
   142  011F                     	;# 
   143  018C                     	;# 
   144  018D                     	;# 
   145  018E                     	;# 
   146  018F                     	;# 
   147  0190                     	;# 
   148  0191                     	;# 
   149  0192                     	;# 
   150  0196                     	;# 
   151  0197                     	;# 
   152  0198                     	;# 
   153  0199                     	;# 
   154  019A                     	;# 
   155  019B                     	;# 
   156  019C                     	;# 
   157  020C                     	;# 
   158  020C                     	;# 
   159  020D                     	;# 
   160  020E                     	;# 
   161  020F                     	;# 
   162  020F                     	;# 
   163  0210                     	;# 
   164  0210                     	;# 
   165  0211                     	;# 
   166  0211                     	;# 
   167  028C                     	;# 
   168  028C                     	;# 
   169  028D                     	;# 
   170  028D                     	;# 
   171  028E                     	;# 
   172  028F                     	;# 
   173  0290                     	;# 
   174  0291                     	;# 
   175  030C                     	;# 
   176  030C                     	;# 
   177  030D                     	;# 
   178  030E                     	;# 
   179  030F                     	;# 
   180  0310                     	;# 
   181  0310                     	;# 
   182  0311                     	;# 
   183  0312                     	;# 
   184  0313                     	;# 
   185  0314                     	;# 
   186  0315                     	;# 
   187  0316                     	;# 
   188  0318                     	;# 
   189  0319                     	;# 
   190  031A                     	;# 
   191  031C                     	;# 
   192  031D                     	;# 
   193  031E                     	;# 
   194  038C                     	;# 
   195  038D                     	;# 
   196  038E                     	;# 
   197  058C                     	;# 
   198  058C                     	;# 
   199  058D                     	;# 
   200  058E                     	;# 
   201  058F                     	;# 
   202  058F                     	;# 
   203  0590                     	;# 
   204  0591                     	;# 
   205  0592                     	;# 
   206  0593                     	;# 
   207  059C                     	;# 
   208  059C                     	;# 
   209  059D                     	;# 
   210  059D                     	;# 
   211  059E                     	;# 
   212  059F                     	;# 
   213  060C                     	;# 
   214  060D                     	;# 
   215  060E                     	;# 
   216  060F                     	;# 
   217  0610                     	;# 
   218  0611                     	;# 
   219  0612                     	;# 
   220  0613                     	;# 
   221  0614                     	;# 
   222  070C                     	;# 
   223  070D                     	;# 
   224  070E                     	;# 
   225  070F                     	;# 
   226  0710                     	;# 
   227  0711                     	;# 
   228  0712                     	;# 
   229  0713                     	;# 
   230  0716                     	;# 
   231  0717                     	;# 
   232  0718                     	;# 
   233  0719                     	;# 
   234  071A                     	;# 
   235  071B                     	;# 
   236  071C                     	;# 
   237  071D                     	;# 
   238  0796                     	;# 
   239  0797                     	;# 
   240  0798                     	;# 
   241  0799                     	;# 
   242  079A                     	;# 
   243  079B                     	;# 
   244  080C                     	;# 
   245  080D                     	;# 
   246  080E                     	;# 
   247  080F                     	;# 
   248  0810                     	;# 
   249  0811                     	;# 
   250  0812                     	;# 
   251  0813                     	;# 
   252  0814                     	;# 
   253  081A                     	;# 
   254  081A                     	;# 
   255  081B                     	;# 
   256  081C                     	;# 
   257  081C                     	;# 
   258  081D                     	;# 
   259  081E                     	;# 
   260  081F                     	;# 
   261  088C                     	;# 
   262  088D                     	;# 
   263  088E                     	;# 
   264  088F                     	;# 
   265  0890                     	;# 
   266  0891                     	;# 
   267  0892                     	;# 
   268  0893                     	;# 
   269  0895                     	;# 
   270  0896                     	;# 
   271  090C                     	;# 
   272  090E                     	;# 
   273  090F                     	;# 
   274  091F                     	;# 
   275  098F                     	;# 
   276  098F                     	;# 
   277  0990                     	;# 
   278  0991                     	;# 
   279  0992                     	;# 
   280  0993                     	;# 
   281  0994                     	;# 
   282  0995                     	;# 
   283  0996                     	;# 
   284  0997                     	;# 
   285  0A19                     	;# 
   286  0A19                     	;# 
   287  0A1A                     	;# 
   288  0A1A                     	;# 
   289  0A1B                     	;# 
   290  0A1B                     	;# 
   291  0A1B                     	;# 
   292  0A1C                     	;# 
   293  0A1C                     	;# 
   294  0A1D                     	;# 
   295  0A1D                     	;# 
   296  0A1E                     	;# 
   297  0A1E                     	;# 
   298  0A1F                     	;# 
   299  0A1F                     	;# 
   300  0A1F                     	;# 
   301  1E0F                     	;# 
   302  1E10                     	;# 
   303  1E11                     	;# 
   304  1E12                     	;# 
   305  1E13                     	;# 
   306  1E14                     	;# 
   307  1E15                     	;# 
   308  1E16                     	;# 
   309  1E17                     	;# 
   310  1E18                     	;# 
   311  1E19                     	;# 
   312  1E1A                     	;# 
   313  1E1B                     	;# 
   314  1E1C                     	;# 
   315  1E1D                     	;# 
   316  1E1E                     	;# 
   317  1E1F                     	;# 
   318  1E20                     	;# 
   319  1E21                     	;# 
   320  1E22                     	;# 
   321  1E23                     	;# 
   322  1E24                     	;# 
   323  1E25                     	;# 
   324  1E26                     	;# 
   325  1E27                     	;# 
   326  1E28                     	;# 
   327  1E29                     	;# 
   328  1E2A                     	;# 
   329  1E2B                     	;# 
   330  1E2C                     	;# 
   331  1E2D                     	;# 
   332  1E2E                     	;# 
   333  1E2F                     	;# 
   334  1E30                     	;# 
   335  1E31                     	;# 
   336  1E32                     	;# 
   337  1E33                     	;# 
   338  1E34                     	;# 
   339  1E35                     	;# 
   340  1E36                     	;# 
   341  1E37                     	;# 
   342  1E8F                     	;# 
   343  1E90                     	;# 
   344  1E91                     	;# 
   345  1E92                     	;# 
   346  1E93                     	;# 
   347  1E9C                     	;# 
   348  1EA1                     	;# 
   349  1EA2                     	;# 
   350  1EB1                     	;# 
   351  1EBB                     	;# 
   352  1EBC                     	;# 
   353  1EBD                     	;# 
   354  1EBE                     	;# 
   355  1EC3                     	;# 
   356  1EC5                     	;# 
   357  1EC6                     	;# 
   358  1EC7                     	;# 
   359  1EC8                     	;# 
   360  1EC9                     	;# 
   361  1ECA                     	;# 
   362  1ECB                     	;# 
   363  1ECC                     	;# 
   364  1ECD                     	;# 
   365  1ECE                     	;# 
   366  1F10                     	;# 
   367  1F11                     	;# 
   368  1F12                     	;# 
   369  1F13                     	;# 
   370  1F14                     	;# 
   371  1F15                     	;# 
   372  1F16                     	;# 
   373  1F17                     	;# 
   374  1F18                     	;# 
   375  1F19                     	;# 
   376  1F1A                     	;# 
   377  1F1B                     	;# 
   378  1F1C                     	;# 
   379  1F1D                     	;# 
   380  1F1E                     	;# 
   381  1F1F                     	;# 
   382  1F20                     	;# 
   383  1F21                     	;# 
   384  1F22                     	;# 
   385  1F23                     	;# 
   386  1F24                     	;# 
   387  1F25                     	;# 
   388  1F26                     	;# 
   389  1F27                     	;# 
   390  1F28                     	;# 
   391  1F29                     	;# 
   392  1F2A                     	;# 
   393  1F2B                     	;# 
   394  1F2C                     	;# 
   395  1F2D                     	;# 
   396  1F2E                     	;# 
   397  1F2F                     	;# 
   398  1F30                     	;# 
   399  1F31                     	;# 
   400  1F32                     	;# 
   401  1F38                     	;# 
   402  1F39                     	;# 
   403  1F3A                     	;# 
   404  1F3B                     	;# 
   405  1F3C                     	;# 
   406  1F3D                     	;# 
   407  1F3E                     	;# 
   408  1F3F                     	;# 
   409  1F43                     	;# 
   410  1F44                     	;# 
   411  1F45                     	;# 
   412  1F46                     	;# 
   413  1F47                     	;# 
   414  1F48                     	;# 
   415  1F49                     	;# 
   416  1F4A                     	;# 
   417  1F4E                     	;# 
   418  1F4F                     	;# 
   419  1F50                     	;# 
   420  1F51                     	;# 
   421  1F52                     	;# 
   422  1F53                     	;# 
   423  1F54                     	;# 
   424  1F55                     	;# 
   425  1F59                     	;# 
   426  1F5A                     	;# 
   427  1F5B                     	;# 
   428  1F5C                     	;# 
   429  1F5D                     	;# 
   430  1F64                     	;# 
   431  1F65                     	;# 
   432  1F66                     	;# 
   433  1F67                     	;# 
   434  1F68                     	;# 
   435  1F69                     	;# 
   436  1F6A                     	;# 
   437  1F6B                     	;# 
   438  1FE4                     	;# 
   439  1FE5                     	;# 
   440  1FE6                     	;# 
   441  1FE7                     	;# 
   442  1FE8                     	;# 
   443  1FE8                     	;# 
   444  1FE9                     	;# 
   445  1FEA                     	;# 
   446  1FEB                     	;# 
   447  1FED                     	;# 
   448  1FEE                     	;# 
   449  1FEF                     	;# 
   450  0000                     	;# 
   451  0001                     	;# 
   452  0002                     	;# 
   453  0003                     	;# 
   454  0004                     	;# 
   455  0005                     	;# 
   456  0006                     	;# 
   457  0007                     	;# 
   458  0008                     	;# 
   459  0009                     	;# 
   460  000A                     	;# 
   461  000B                     	;# 
   462  000C                     	;# 
   463  000D                     	;# 
   464  000E                     	;# 
   465  000F                     	;# 
   466  0010                     	;# 
   467  0012                     	;# 
   468  0013                     	;# 
   469  0014                     	;# 
   470  0015                     	;# 
   471  0016                     	;# 
   472  0018                     	;# 
   473  0019                     	;# 
   474  001A                     	;# 
   475  001B                     	;# 
   476  001C                     	;# 
   477  009B                     	;# 
   478  009B                     	;# 
   479  009C                     	;# 
   480  009D                     	;# 
   481  009E                     	;# 
   482  009F                     	;# 
   483  0119                     	;# 
   484  0119                     	;# 
   485  0119                     	;# 
   486  011A                     	;# 
   487  011A                     	;# 
   488  011A                     	;# 
   489  011B                     	;# 
   490  011B                     	;# 
   491  011B                     	;# 
   492  011B                     	;# 
   493  011B                     	;# 
   494  011C                     	;# 
   495  011C                     	;# 
   496  011C                     	;# 
   497  011D                     	;# 
   498  011D                     	;# 
   499  011D                     	;# 
   500  011E                     	;# 
   501  011E                     	;# 
   502  011E                     	;# 
   503  011F                     	;# 
   504  011F                     	;# 
   505  011F                     	;# 
   506  011F                     	;# 
   507  011F                     	;# 
   508  018C                     	;# 
   509  018D                     	;# 
   510  018E                     	;# 
   511  018F                     	;# 
   512  0190                     	;# 
   513  0191                     	;# 
   514  0192                     	;# 
   515  0196                     	;# 
   516  0197                     	;# 
   517  0198                     	;# 
   518  0199                     	;# 
   519  019A                     	;# 
   520  019B                     	;# 
   521  019C                     	;# 
   522  020C                     	;# 
   523  020C                     	;# 
   524  020D                     	;# 
   525  020E                     	;# 
   526  020F                     	;# 
   527  020F                     	;# 
   528  0210                     	;# 
   529  0210                     	;# 
   530  0211                     	;# 
   531  0211                     	;# 
   532  028C                     	;# 
   533  028C                     	;# 
   534  028D                     	;# 
   535  028D                     	;# 
   536  028E                     	;# 
   537  028F                     	;# 
   538  0290                     	;# 
   539  0291                     	;# 
   540  030C                     	;# 
   541  030C                     	;# 
   542  030D                     	;# 
   543  030E                     	;# 
   544  030F                     	;# 
   545  0310                     	;# 
   546  0310                     	;# 
   547  0311                     	;# 
   548  0312                     	;# 
   549  0313                     	;# 
   550  0314                     	;# 
   551  0315                     	;# 
   552  0316                     	;# 
   553  0318                     	;# 
   554  0319                     	;# 
   555  031A                     	;# 
   556  031C                     	;# 
   557  031D                     	;# 
   558  031E                     	;# 
   559  038C                     	;# 
   560  038D                     	;# 
   561  038E                     	;# 
   562  058C                     	;# 
   563  058C                     	;# 
   564  058D                     	;# 
   565  058E                     	;# 
   566  058F                     	;# 
   567  058F                     	;# 
   568  0590                     	;# 
   569  0591                     	;# 
   570  0592                     	;# 
   571  0593                     	;# 
   572  059C                     	;# 
   573  059C                     	;# 
   574  059D                     	;# 
   575  059D                     	;# 
   576  059E                     	;# 
   577  059F                     	;# 
   578  060C                     	;# 
   579  060D                     	;# 
   580  060E                     	;# 
   581  060F                     	;# 
   582  0610                     	;# 
   583  0611                     	;# 
   584  0612                     	;# 
   585  0613                     	;# 
   586  0614                     	;# 
   587  070C                     	;# 
   588  070D                     	;# 
   589  070E                     	;# 
   590  070F                     	;# 
   591  0710                     	;# 
   592  0711                     	;# 
   593  0712                     	;# 
   594  0713                     	;# 
   595  0716                     	;# 
   596  0717                     	;# 
   597  0718                     	;# 
   598  0719                     	;# 
   599  071A                     	;# 
   600  071B                     	;# 
   601  071C                     	;# 
   602  071D                     	;# 
   603  0796                     	;# 
   604  0797                     	;# 
   605  0798                     	;# 
   606  0799                     	;# 
   607  079A                     	;# 
   608  079B                     	;# 
   609  080C                     	;# 
   610  080D                     	;# 
   611  080E                     	;# 
   612  080F                     	;# 
   613  0810                     	;# 
   614  0811                     	;# 
   615  0812                     	;# 
   616  0813                     	;# 
   617  0814                     	;# 
   618  081A                     	;# 
   619  081A                     	;# 
   620  081B                     	;# 
   621  081C                     	;# 
   622  081C                     	;# 
   623  081D                     	;# 
   624  081E                     	;# 
   625  081F                     	;# 
   626  088C                     	;# 
   627  088D                     	;# 
   628  088E                     	;# 
   629  088F                     	;# 
   630  0890                     	;# 
   631  0891                     	;# 
   632  0892                     	;# 
   633  0893                     	;# 
   634  0895                     	;# 
   635  0896                     	;# 
   636  090C                     	;# 
   637  090E                     	;# 
   638  090F                     	;# 
   639  091F                     	;# 
   640  098F                     	;# 
   641  098F                     	;# 
   642  0990                     	;# 
   643  0991                     	;# 
   644  0992                     	;# 
   645  0993                     	;# 
   646  0994                     	;# 
   647  0995                     	;# 
   648  0996                     	;# 
   649  0997                     	;# 
   650  0A19                     	;# 
   651  0A19                     	;# 
   652  0A1A                     	;# 
   653  0A1A                     	;# 
   654  0A1B                     	;# 
   655  0A1B                     	;# 
   656  0A1B                     	;# 
   657  0A1C                     	;# 
   658  0A1C                     	;# 
   659  0A1D                     	;# 
   660  0A1D                     	;# 
   661  0A1E                     	;# 
   662  0A1E                     	;# 
   663  0A1F                     	;# 
   664  0A1F                     	;# 
   665  0A1F                     	;# 
   666  1E0F                     	;# 
   667  1E10                     	;# 
   668  1E11                     	;# 
   669  1E12                     	;# 
   670  1E13                     	;# 
   671  1E14                     	;# 
   672  1E15                     	;# 
   673  1E16                     	;# 
   674  1E17                     	;# 
   675  1E18                     	;# 
   676  1E19                     	;# 
   677  1E1A                     	;# 
   678  1E1B                     	;# 
   679  1E1C                     	;# 
   680  1E1D                     	;# 
   681  1E1E                     	;# 
   682  1E1F                     	;# 
   683  1E20                     	;# 
   684  1E21                     	;# 
   685  1E22                     	;# 
   686  1E23                     	;# 
   687  1E24                     	;# 
   688  1E25                     	;# 
   689  1E26                     	;# 
   690  1E27                     	;# 
   691  1E28                     	;# 
   692  1E29                     	;# 
   693  1E2A                     	;# 
   694  1E2B                     	;# 
   695  1E2C                     	;# 
   696  1E2D                     	;# 
   697  1E2E                     	;# 
   698  1E2F                     	;# 
   699  1E30                     	;# 
   700  1E31                     	;# 
   701  1E32                     	;# 
   702  1E33                     	;# 
   703  1E34                     	;# 
   704  1E35                     	;# 
   705  1E36                     	;# 
   706  1E37                     	;# 
   707  1E8F                     	;# 
   708  1E90                     	;# 
   709  1E91                     	;# 
   710  1E92                     	;# 
   711  1E93                     	;# 
   712  1E9C                     	;# 
   713  1EA1                     	;# 
   714  1EA2                     	;# 
   715  1EB1                     	;# 
   716  1EBB                     	;# 
   717  1EBC                     	;# 
   718  1EBD                     	;# 
   719  1EBE                     	;# 
   720  1EC3                     	;# 
   721  1EC5                     	;# 
   722  1EC6                     	;# 
   723  1EC7                     	;# 
   724  1EC8                     	;# 
   725  1EC9                     	;# 
   726  1ECA                     	;# 
   727  1ECB                     	;# 
   728  1ECC                     	;# 
   729  1ECD                     	;# 
   730  1ECE                     	;# 
   731  1F10                     	;# 
   732  1F11                     	;# 
   733  1F12                     	;# 
   734  1F13                     	;# 
   735  1F14                     	;# 
   736  1F15                     	;# 
   737  1F16                     	;# 
   738  1F17                     	;# 
   739  1F18                     	;# 
   740  1F19                     	;# 
   741  1F1A                     	;# 
   742  1F1B                     	;# 
   743  1F1C                     	;# 
   744  1F1D                     	;# 
   745  1F1E                     	;# 
   746  1F1F                     	;# 
   747  1F20                     	;# 
   748  1F21                     	;# 
   749  1F22                     	;# 
   750  1F23                     	;# 
   751  1F24                     	;# 
   752  1F25                     	;# 
   753  1F26                     	;# 
   754  1F27                     	;# 
   755  1F28                     	;# 
   756  1F29                     	;# 
   757  1F2A                     	;# 
   758  1F2B                     	;# 
   759  1F2C                     	;# 
   760  1F2D                     	;# 
   761  1F2E                     	;# 
   762  1F2F                     	;# 
   763  1F30                     	;# 
   764  1F31                     	;# 
   765  1F32                     	;# 
   766  1F38                     	;# 
   767  1F39                     	;# 
   768  1F3A                     	;# 
   769  1F3B                     	;# 
   770  1F3C                     	;# 
   771  1F3D                     	;# 
   772  1F3E                     	;# 
   773  1F3F                     	;# 
   774  1F43                     	;# 
   775  1F44                     	;# 
   776  1F45                     	;# 
   777  1F46                     	;# 
   778  1F47                     	;# 
   779  1F48                     	;# 
   780  1F49                     	;# 
   781  1F4A                     	;# 
   782  1F4E                     	;# 
   783  1F4F                     	;# 
   784  1F50                     	;# 
   785  1F51                     	;# 
   786  1F52                     	;# 
   787  1F53                     	;# 
   788  1F54                     	;# 
   789  1F55                     	;# 
   790  1F59                     	;# 
   791  1F5A                     	;# 
   792  1F5B                     	;# 
   793  1F5C                     	;# 
   794  1F5D                     	;# 
   795  1F64                     	;# 
   796  1F65                     	;# 
   797  1F66                     	;# 
   798  1F67                     	;# 
   799  1F68                     	;# 
   800  1F69                     	;# 
   801  1F6A                     	;# 
   802  1F6B                     	;# 
   803  1FE4                     	;# 
   804  1FE5                     	;# 
   805  1FE6                     	;# 
   806  1FE7                     	;# 
   807  1FE8                     	;# 
   808  1FE8                     	;# 
   809  1FE9                     	;# 
   810  1FEA                     	;# 
   811  1FEB                     	;# 
   812  1FED                     	;# 
   813  1FEE                     	;# 
   814  1FEF                     	;# 
   815  0000                     	;# 
   816  0001                     	;# 
   817  0002                     	;# 
   818  0003                     	;# 
   819  0004                     	;# 
   820  0005                     	;# 
   821  0006                     	;# 
   822  0007                     	;# 
   823  0008                     	;# 
   824  0009                     	;# 
   825  000A                     	;# 
   826  000B                     	;# 
   827  000C                     	;# 
   828  000D                     	;# 
   829  000E                     	;# 
   830  000F                     	;# 
   831  0010                     	;# 
   832  0012                     	;# 
   833  0013                     	;# 
   834  0014                     	;# 
   835  0015                     	;# 
   836  0016                     	;# 
   837  0018                     	;# 
   838  0019                     	;# 
   839  001A                     	;# 
   840  001B                     	;# 
   841  001C                     	;# 
   842  009B                     	;# 
   843  009B                     	;# 
   844  009C                     	;# 
   845  009D                     	;# 
   846  009E                     	;# 
   847  009F                     	;# 
   848  0119                     	;# 
   849  0119                     	;# 
   850  0119                     	;# 
   851  011A                     	;# 
   852  011A                     	;# 
   853  011A                     	;# 
   854  011B                     	;# 
   855  011B                     	;# 
   856  011B                     	;# 
   857  011B                     	;# 
   858  011B                     	;# 
   859  011C                     	;# 
   860  011C                     	;# 
   861  011C                     	;# 
   862  011D                     	;# 
   863  011D                     	;# 
   864  011D                     	;# 
   865  011E                     	;# 
   866  011E                     	;# 
   867  011E                     	;# 
   868  011F                     	;# 
   869  011F                     	;# 
   870  011F                     	;# 
   871  011F                     	;# 
   872  011F                     	;# 
   873  018C                     	;# 
   874  018D                     	;# 
   875  018E                     	;# 
   876  018F                     	;# 
   877  0190                     	;# 
   878  0191                     	;# 
   879  0192                     	;# 
   880  0196                     	;# 
   881  0197                     	;# 
   882  0198                     	;# 
   883  0199                     	;# 
   884  019A                     	;# 
   885  019B                     	;# 
   886  019C                     	;# 
   887  020C                     	;# 
   888  020C                     	;# 
   889  020D                     	;# 
   890  020E                     	;# 
   891  020F                     	;# 
   892  020F                     	;# 
   893  0210                     	;# 
   894  0210                     	;# 
   895  0211                     	;# 
   896  0211                     	;# 
   897  028C                     	;# 
   898  028C                     	;# 
   899  028D                     	;# 
   900  028D                     	;# 
   901  028E                     	;# 
   902  028F                     	;# 
   903  0290                     	;# 
   904  0291                     	;# 
   905  030C                     	;# 
   906  030C                     	;# 
   907  030D                     	;# 
   908  030E                     	;# 
   909  030F                     	;# 
   910  0310                     	;# 
   911  0310                     	;# 
   912  0311                     	;# 
   913  0312                     	;# 
   914  0313                     	;# 
   915  0314                     	;# 
   916  0315                     	;# 
   917  0316                     	;# 
   918  0318                     	;# 
   919  0319                     	;# 
   920  031A                     	;# 
   921  031C                     	;# 
   922  031D                     	;# 
   923  031E                     	;# 
   924  038C                     	;# 
   925  038D                     	;# 
   926  038E                     	;# 
   927  058C                     	;# 
   928  058C                     	;# 
   929  058D                     	;# 
   930  058E                     	;# 
   931  058F                     	;# 
   932  058F                     	;# 
   933  0590                     	;# 
   934  0591                     	;# 
   935  0592                     	;# 
   936  0593                     	;# 
   937  059C                     	;# 
   938  059C                     	;# 
   939  059D                     	;# 
   940  059D                     	;# 
   941  059E                     	;# 
   942  059F                     	;# 
   943  060C                     	;# 
   944  060D                     	;# 
   945  060E                     	;# 
   946  060F                     	;# 
   947  0610                     	;# 
   948  0611                     	;# 
   949  0612                     	;# 
   950  0613                     	;# 
   951  0614                     	;# 
   952  070C                     	;# 
   953  070D                     	;# 
   954  070E                     	;# 
   955  070F                     	;# 
   956  0710                     	;# 
   957  0711                     	;# 
   958  0712                     	;# 
   959  0713                     	;# 
   960  0716                     	;# 
   961  0717                     	;# 
   962  0718                     	;# 
   963  0719                     	;# 
   964  071A                     	;# 
   965  071B                     	;# 
   966  071C                     	;# 
   967  071D                     	;# 
   968  0796                     	;# 
   969  0797                     	;# 
   970  0798                     	;# 
   971  0799                     	;# 
   972  079A                     	;# 
   973  079B                     	;# 
   974  080C                     	;# 
   975  080D                     	;# 
   976  080E                     	;# 
   977  080F                     	;# 
   978  0810                     	;# 
   979  0811                     	;# 
   980  0812                     	;# 
   981  0813                     	;# 
   982  0814                     	;# 
   983  081A                     	;# 
   984  081A                     	;# 
   985  081B                     	;# 
   986  081C                     	;# 
   987  081C                     	;# 
   988  081D                     	;# 
   989  081E                     	;# 
   990  081F                     	;# 
   991  088C                     	;# 
   992  088D                     	;# 
   993  088E                     	;# 
   994  088F                     	;# 
   995  0890                     	;# 
   996  0891                     	;# 
   997  0892                     	;# 
   998  0893                     	;# 
   999  0895                     	;# 
  1000  0896                     	;# 
  1001  090C                     	;# 
  1002  090E                     	;# 
  1003  090F                     	;# 
  1004  091F                     	;# 
  1005  098F                     	;# 
  1006  098F                     	;# 
  1007  0990                     	;# 
  1008  0991                     	;# 
  1009  0992                     	;# 
  1010  0993                     	;# 
  1011  0994                     	;# 
  1012  0995                     	;# 
  1013  0996                     	;# 
  1014  0997                     	;# 
  1015  0A19                     	;# 
  1016  0A19                     	;# 
  1017  0A1A                     	;# 
  1018  0A1A                     	;# 
  1019  0A1B                     	;# 
  1020  0A1B                     	;# 
  1021  0A1B                     	;# 
  1022  0A1C                     	;# 
  1023  0A1C                     	;# 
  1024  0A1D                     	;# 
  1025  0A1D                     	;# 
  1026  0A1E                     	;# 
  1027  0A1E                     	;# 
  1028  0A1F                     	;# 
  1029  0A1F                     	;# 
  1030  0A1F                     	;# 
  1031  1E0F                     	;# 
  1032  1E10                     	;# 
  1033  1E11                     	;# 
  1034  1E12                     	;# 
  1035  1E13                     	;# 
  1036  1E14                     	;# 
  1037  1E15                     	;# 
  1038  1E16                     	;# 
  1039  1E17                     	;# 
  1040  1E18                     	;# 
  1041  1E19                     	;# 
  1042  1E1A                     	;# 
  1043  1E1B                     	;# 
  1044  1E1C                     	;# 
  1045  1E1D                     	;# 
  1046  1E1E                     	;# 
  1047  1E1F                     	;# 
  1048  1E20                     	;# 
  1049  1E21                     	;# 
  1050  1E22                     	;# 
  1051  1E23                     	;# 
  1052  1E24                     	;# 
  1053  1E25                     	;# 
  1054  1E26                     	;# 
  1055  1E27                     	;# 
  1056  1E28                     	;# 
  1057  1E29                     	;# 
  1058  1E2A                     	;# 
  1059  1E2B                     	;# 
  1060  1E2C                     	;# 
  1061  1E2D                     	;# 
  1062  1E2E                     	;# 
  1063  1E2F                     	;# 
  1064  1E30                     	;# 
  1065  1E31                     	;# 
  1066  1E32                     	;# 
  1067  1E33                     	;# 
  1068  1E34                     	;# 
  1069  1E35                     	;# 
  1070  1E36                     	;# 
  1071  1E37                     	;# 
  1072  1E8F                     	;# 
  1073  1E90                     	;# 
  1074  1E91                     	;# 
  1075  1E92                     	;# 
  1076  1E93                     	;# 
  1077  1E9C                     	;# 
  1078  1EA1                     	;# 
  1079  1EA2                     	;# 
  1080  1EB1                     	;# 
  1081  1EBB                     	;# 
  1082  1EBC                     	;# 
  1083  1EBD                     	;# 
  1084  1EBE                     	;# 
  1085  1EC3                     	;# 
  1086  1EC5                     	;# 
  1087  1EC6                     	;# 
  1088  1EC7                     	;# 
  1089  1EC8                     	;# 
  1090  1EC9                     	;# 
  1091  1ECA                     	;# 
  1092  1ECB                     	;# 
  1093  1ECC                     	;# 
  1094  1ECD                     	;# 
  1095  1ECE                     	;# 
  1096  1F10                     	;# 
  1097  1F11                     	;# 
  1098  1F12                     	;# 
  1099  1F13                     	;# 
  1100  1F14                     	;# 
  1101  1F15                     	;# 
  1102  1F16                     	;# 
  1103  1F17                     	;# 
  1104  1F18                     	;# 
  1105  1F19                     	;# 
  1106  1F1A                     	;# 
  1107  1F1B                     	;# 
  1108  1F1C                     	;# 
  1109  1F1D                     	;# 
  1110  1F1E                     	;# 
  1111  1F1F                     	;# 
  1112  1F20                     	;# 
  1113  1F21                     	;# 
  1114  1F22                     	;# 
  1115  1F23                     	;# 
  1116  1F24                     	;# 
  1117  1F25                     	;# 
  1118  1F26                     	;# 
  1119  1F27                     	;# 
  1120  1F28                     	;# 
  1121  1F29                     	;# 
  1122  1F2A                     	;# 
  1123  1F2B                     	;# 
  1124  1F2C                     	;# 
  1125  1F2D                     	;# 
  1126  1F2E                     	;# 
  1127  1F2F                     	;# 
  1128  1F30                     	;# 
  1129  1F31                     	;# 
  1130  1F32                     	;# 
  1131  1F38                     	;# 
  1132  1F39                     	;# 
  1133  1F3A                     	;# 
  1134  1F3B                     	;# 
  1135  1F3C                     	;# 
  1136  1F3D                     	;# 
  1137  1F3E                     	;# 
  1138  1F3F                     	;# 
  1139  1F43                     	;# 
  1140  1F44                     	;# 
  1141  1F45                     	;# 
  1142  1F46                     	;# 
  1143  1F47                     	;# 
  1144  1F48                     	;# 
  1145  1F49                     	;# 
  1146  1F4A                     	;# 
  1147  1F4E                     	;# 
  1148  1F4F                     	;# 
  1149  1F50                     	;# 
  1150  1F51                     	;# 
  1151  1F52                     	;# 
  1152  1F53                     	;# 
  1153  1F54                     	;# 
  1154  1F55                     	;# 
  1155  1F59                     	;# 
  1156  1F5A                     	;# 
  1157  1F5B                     	;# 
  1158  1F5C                     	;# 
  1159  1F5D                     	;# 
  1160  1F64                     	;# 
  1161  1F65                     	;# 
  1162  1F66                     	;# 
  1163  1F67                     	;# 
  1164  1F68                     	;# 
  1165  1F69                     	;# 
  1166  1F6A                     	;# 
  1167  1F6B                     	;# 
  1168  1FE4                     	;# 
  1169  1FE5                     	;# 
  1170  1FE6                     	;# 
  1171  1FE7                     	;# 
  1172  1FE8                     	;# 
  1173  1FE8                     	;# 
  1174  1FE9                     	;# 
  1175  1FEA                     	;# 
  1176  1FEB                     	;# 
  1177  1FED                     	;# 
  1178  1FEE                     	;# 
  1179  1FEF                     	;# 
  1180  0000                     	;# 
  1181  0001                     	;# 
  1182  0002                     	;# 
  1183  0003                     	;# 
  1184  0004                     	;# 
  1185  0005                     	;# 
  1186  0006                     	;# 
  1187  0007                     	;# 
  1188  0008                     	;# 
  1189  0009                     	;# 
  1190  000A                     	;# 
  1191  000B                     	;# 
  1192  000C                     	;# 
  1193  000D                     	;# 
  1194  000E                     	;# 
  1195  000F                     	;# 
  1196  0010                     	;# 
  1197  0012                     	;# 
  1198  0013                     	;# 
  1199  0014                     	;# 
  1200  0015                     	;# 
  1201  0016                     	;# 
  1202  0018                     	;# 
  1203  0019                     	;# 
  1204  001A                     	;# 
  1205  001B                     	;# 
  1206  001C                     	;# 
  1207  009B                     	;# 
  1208  009B                     	;# 
  1209  009C                     	;# 
  1210  009D                     	;# 
  1211  009E                     	;# 
  1212  009F                     	;# 
  1213  0119                     	;# 
  1214  0119                     	;# 
  1215  0119                     	;# 
  1216  011A                     	;# 
  1217  011A                     	;# 
  1218  011A                     	;# 
  1219  011B                     	;# 
  1220  011B                     	;# 
  1221  011B                     	;# 
  1222  011B                     	;# 
  1223  011B                     	;# 
  1224  011C                     	;# 
  1225  011C                     	;# 
  1226  011C                     	;# 
  1227  011D                     	;# 
  1228  011D                     	;# 
  1229  011D                     	;# 
  1230  011E                     	;# 
  1231  011E                     	;# 
  1232  011E                     	;# 
  1233  011F                     	;# 
  1234  011F                     	;# 
  1235  011F                     	;# 
  1236  011F                     	;# 
  1237  011F                     	;# 
  1238  018C                     	;# 
  1239  018D                     	;# 
  1240  018E                     	;# 
  1241  018F                     	;# 
  1242  0190                     	;# 
  1243  0191                     	;# 
  1244  0192                     	;# 
  1245  0196                     	;# 
  1246  0197                     	;# 
  1247  0198                     	;# 
  1248  0199                     	;# 
  1249  019A                     	;# 
  1250  019B                     	;# 
  1251  019C                     	;# 
  1252  020C                     	;# 
  1253  020C                     	;# 
  1254  020D                     	;# 
  1255  020E                     	;# 
  1256  020F                     	;# 
  1257  020F                     	;# 
  1258  0210                     	;# 
  1259  0210                     	;# 
  1260  0211                     	;# 
  1261  0211                     	;# 
  1262  028C                     	;# 
  1263  028C                     	;# 
  1264  028D                     	;# 
  1265  028D                     	;# 
  1266  028E                     	;# 
  1267  028F                     	;# 
  1268  0290                     	;# 
  1269  0291                     	;# 
  1270  030C                     	;# 
  1271  030C                     	;# 
  1272  030D                     	;# 
  1273  030E                     	;# 
  1274  030F                     	;# 
  1275  0310                     	;# 
  1276  0310                     	;# 
  1277  0311                     	;# 
  1278  0312                     	;# 
  1279  0313                     	;# 
  1280  0314                     	;# 
  1281  0315                     	;# 
  1282  0316                     	;# 
  1283  0318                     	;# 
  1284  0319                     	;# 
  1285  031A                     	;# 
  1286  031C                     	;# 
  1287  031D                     	;# 
  1288  031E                     	;# 
  1289  038C                     	;# 
  1290  038D                     	;# 
  1291  038E                     	;# 
  1292  058C                     	;# 
  1293  058C                     	;# 
  1294  058D                     	;# 
  1295  058E                     	;# 
  1296  058F                     	;# 
  1297  058F                     	;# 
  1298  0590                     	;# 
  1299  0591                     	;# 
  1300  0592                     	;# 
  1301  0593                     	;# 
  1302  059C                     	;# 
  1303  059C                     	;# 
  1304  059D                     	;# 
  1305  059D                     	;# 
  1306  059E                     	;# 
  1307  059F                     	;# 
  1308  060C                     	;# 
  1309  060D                     	;# 
  1310  060E                     	;# 
  1311  060F                     	;# 
  1312  0610                     	;# 
  1313  0611                     	;# 
  1314  0612                     	;# 
  1315  0613                     	;# 
  1316  0614                     	;# 
  1317  070C                     	;# 
  1318  070D                     	;# 
  1319  070E                     	;# 
  1320  070F                     	;# 
  1321  0710                     	;# 
  1322  0711                     	;# 
  1323  0712                     	;# 
  1324  0713                     	;# 
  1325  0716                     	;# 
  1326  0717                     	;# 
  1327  0718                     	;# 
  1328  0719                     	;# 
  1329  071A                     	;# 
  1330  071B                     	;# 
  1331  071C                     	;# 
  1332  071D                     	;# 
  1333  0796                     	;# 
  1334  0797                     	;# 
  1335  0798                     	;# 
  1336  0799                     	;# 
  1337  079A                     	;# 
  1338  079B                     	;# 
  1339  080C                     	;# 
  1340  080D                     	;# 
  1341  080E                     	;# 
  1342  080F                     	;# 
  1343  0810                     	;# 
  1344  0811                     	;# 
  1345  0812                     	;# 
  1346  0813                     	;# 
  1347  0814                     	;# 
  1348  081A                     	;# 
  1349  081A                     	;# 
  1350  081B                     	;# 
  1351  081C                     	;# 
  1352  081C                     	;# 
  1353  081D                     	;# 
  1354  081E                     	;# 
  1355  081F                     	;# 
  1356  088C                     	;# 
  1357  088D                     	;# 
  1358  088E                     	;# 
  1359  088F                     	;# 
  1360  0890                     	;# 
  1361  0891                     	;# 
  1362  0892                     	;# 
  1363  0893                     	;# 
  1364  0895                     	;# 
  1365  0896                     	;# 
  1366  090C                     	;# 
  1367  090E                     	;# 
  1368  090F                     	;# 
  1369  091F                     	;# 
  1370  098F                     	;# 
  1371  098F                     	;# 
  1372  0990                     	;# 
  1373  0991                     	;# 
  1374  0992                     	;# 
  1375  0993                     	;# 
  1376  0994                     	;# 
  1377  0995                     	;# 
  1378  0996                     	;# 
  1379  0997                     	;# 
  1380  0A19                     	;# 
  1381  0A19                     	;# 
  1382  0A1A                     	;# 
  1383  0A1A                     	;# 
  1384  0A1B                     	;# 
  1385  0A1B                     	;# 
  1386  0A1B                     	;# 
  1387  0A1C                     	;# 
  1388  0A1C                     	;# 
  1389  0A1D                     	;# 
  1390  0A1D                     	;# 
  1391  0A1E                     	;# 
  1392  0A1E                     	;# 
  1393  0A1F                     	;# 
  1394  0A1F                     	;# 
  1395  0A1F                     	;# 
  1396  1E0F                     	;# 
  1397  1E10                     	;# 
  1398  1E11                     	;# 
  1399  1E12                     	;# 
  1400  1E13                     	;# 
  1401  1E14                     	;# 
  1402  1E15                     	;# 
  1403  1E16                     	;# 
  1404  1E17                     	;# 
  1405  1E18                     	;# 
  1406  1E19                     	;# 
  1407  1E1A                     	;# 
  1408  1E1B                     	;# 
  1409  1E1C                     	;# 
  1410  1E1D                     	;# 
  1411  1E1E                     	;# 
  1412  1E1F                     	;# 
  1413  1E20                     	;# 
  1414  1E21                     	;# 
  1415  1E22                     	;# 
  1416  1E23                     	;# 
  1417  1E24                     	;# 
  1418  1E25                     	;# 
  1419  1E26                     	;# 
  1420  1E27                     	;# 
  1421  1E28                     	;# 
  1422  1E29                     	;# 
  1423  1E2A                     	;# 
  1424  1E2B                     	;# 
  1425  1E2C                     	;# 
  1426  1E2D                     	;# 
  1427  1E2E                     	;# 
  1428  1E2F                     	;# 
  1429  1E30                     	;# 
  1430  1E31                     	;# 
  1431  1E32                     	;# 
  1432  1E33                     	;# 
  1433  1E34                     	;# 
  1434  1E35                     	;# 
  1435  1E36                     	;# 
  1436  1E37                     	;# 
  1437  1E8F                     	;# 
  1438  1E90                     	;# 
  1439  1E91                     	;# 
  1440  1E92                     	;# 
  1441  1E93                     	;# 
  1442  1E9C                     	;# 
  1443  1EA1                     	;# 
  1444  1EA2                     	;# 
  1445  1EB1                     	;# 
  1446  1EBB                     	;# 
  1447  1EBC                     	;# 
  1448  1EBD                     	;# 
  1449  1EBE                     	;# 
  1450  1EC3                     	;# 
  1451  1EC5                     	;# 
  1452  1EC6                     	;# 
  1453  1EC7                     	;# 
  1454  1EC8                     	;# 
  1455  1EC9                     	;# 
  1456  1ECA                     	;# 
  1457  1ECB                     	;# 
  1458  1ECC                     	;# 
  1459  1ECD                     	;# 
  1460  1ECE                     	;# 
  1461  1F10                     	;# 
  1462  1F11                     	;# 
  1463  1F12                     	;# 
  1464  1F13                     	;# 
  1465  1F14                     	;# 
  1466  1F15                     	;# 
  1467  1F16                     	;# 
  1468  1F17                     	;# 
  1469  1F18                     	;# 
  1470  1F19                     	;# 
  1471  1F1A                     	;# 
  1472  1F1B                     	;# 
  1473  1F1C                     	;# 
  1474  1F1D                     	;# 
  1475  1F1E                     	;# 
  1476  1F1F                     	;# 
  1477  1F20                     	;# 
  1478  1F21                     	;# 
  1479  1F22                     	;# 
  1480  1F23                     	;# 
  1481  1F24                     	;# 
  1482  1F25                     	;# 
  1483  1F26                     	;# 
  1484  1F27                     	;# 
  1485  1F28                     	;# 
  1486  1F29                     	;# 
  1487  1F2A                     	;# 
  1488  1F2B                     	;# 
  1489  1F2C                     	;# 
  1490  1F2D                     	;# 
  1491  1F2E                     	;# 
  1492  1F2F                     	;# 
  1493  1F30                     	;# 
  1494  1F31                     	;# 
  1495  1F32                     	;# 
  1496  1F38                     	;# 
  1497  1F39                     	;# 
  1498  1F3A                     	;# 
  1499  1F3B                     	;# 
  1500  1F3C                     	;# 
  1501  1F3D                     	;# 
  1502  1F3E                     	;# 
  1503  1F3F                     	;# 
  1504  1F43                     	;# 
  1505  1F44                     	;# 
  1506  1F45                     	;# 
  1507  1F46                     	;# 
  1508  1F47                     	;# 
  1509  1F48                     	;# 
  1510  1F49                     	;# 
  1511  1F4A                     	;# 
  1512  1F4E                     	;# 
  1513  1F4F                     	;# 
  1514  1F50                     	;# 
  1515  1F51                     	;# 
  1516  1F52                     	;# 
  1517  1F53                     	;# 
  1518  1F54                     	;# 
  1519  1F55                     	;# 
  1520  1F59                     	;# 
  1521  1F5A                     	;# 
  1522  1F5B                     	;# 
  1523  1F5C                     	;# 
  1524  1F5D                     	;# 
  1525  1F64                     	;# 
  1526  1F65                     	;# 
  1527  1F66                     	;# 
  1528  1F67                     	;# 
  1529  1F68                     	;# 
  1530  1F69                     	;# 
  1531  1F6A                     	;# 
  1532  1F6B                     	;# 
  1533  1FE4                     	;# 
  1534  1FE5                     	;# 
  1535  1FE6                     	;# 
  1536  1FE7                     	;# 
  1537  1FE8                     	;# 
  1538  1FE8                     	;# 
  1539  1FE9                     	;# 
  1540  1FEA                     	;# 
  1541  1FEB                     	;# 
  1542  1FED                     	;# 
  1543  1FEE                     	;# 
  1544  1FEF                     	;# 
  1545  0000                     	;# 
  1546  0001                     	;# 
  1547  0002                     	;# 
  1548  0003                     	;# 
  1549  0004                     	;# 
  1550  0005                     	;# 
  1551  0006                     	;# 
  1552  0007                     	;# 
  1553  0008                     	;# 
  1554  0009                     	;# 
  1555  000A                     	;# 
  1556  000B                     	;# 
  1557  000C                     	;# 
  1558  000D                     	;# 
  1559  000E                     	;# 
  1560  000F                     	;# 
  1561  0010                     	;# 
  1562  0012                     	;# 
  1563  0013                     	;# 
  1564  0014                     	;# 
  1565  0015                     	;# 
  1566  0016                     	;# 
  1567  0018                     	;# 
  1568  0019                     	;# 
  1569  001A                     	;# 
  1570  001B                     	;# 
  1571  001C                     	;# 
  1572  009B                     	;# 
  1573  009B                     	;# 
  1574  009C                     	;# 
  1575  009D                     	;# 
  1576  009E                     	;# 
  1577  009F                     	;# 
  1578  0119                     	;# 
  1579  0119                     	;# 
  1580  0119                     	;# 
  1581  011A                     	;# 
  1582  011A                     	;# 
  1583  011A                     	;# 
  1584  011B                     	;# 
  1585  011B                     	;# 
  1586  011B                     	;# 
  1587  011B                     	;# 
  1588  011B                     	;# 
  1589  011C                     	;# 
  1590  011C                     	;# 
  1591  011C                     	;# 
  1592  011D                     	;# 
  1593  011D                     	;# 
  1594  011D                     	;# 
  1595  011E                     	;# 
  1596  011E                     	;# 
  1597  011E                     	;# 
  1598  011F                     	;# 
  1599  011F                     	;# 
  1600  011F                     	;# 
  1601  011F                     	;# 
  1602  011F                     	;# 
  1603  018C                     	;# 
  1604  018D                     	;# 
  1605  018E                     	;# 
  1606  018F                     	;# 
  1607  0190                     	;# 
  1608  0191                     	;# 
  1609  0192                     	;# 
  1610  0196                     	;# 
  1611  0197                     	;# 
  1612  0198                     	;# 
  1613  0199                     	;# 
  1614  019A                     	;# 
  1615  019B                     	;# 
  1616  019C                     	;# 
  1617  020C                     	;# 
  1618  020C                     	;# 
  1619  020D                     	;# 
  1620  020E                     	;# 
  1621  020F                     	;# 
  1622  020F                     	;# 
  1623  0210                     	;# 
  1624  0210                     	;# 
  1625  0211                     	;# 
  1626  0211                     	;# 
  1627  028C                     	;# 
  1628  028C                     	;# 
  1629  028D                     	;# 
  1630  028D                     	;# 
  1631  028E                     	;# 
  1632  028F                     	;# 
  1633  0290                     	;# 
  1634  0291                     	;# 
  1635  030C                     	;# 
  1636  030C                     	;# 
  1637  030D                     	;# 
  1638  030E                     	;# 
  1639  030F                     	;# 
  1640  0310                     	;# 
  1641  0310                     	;# 
  1642  0311                     	;# 
  1643  0312                     	;# 
  1644  0313                     	;# 
  1645  0314                     	;# 
  1646  0315                     	;# 
  1647  0316                     	;# 
  1648  0318                     	;# 
  1649  0319                     	;# 
  1650  031A                     	;# 
  1651  031C                     	;# 
  1652  031D                     	;# 
  1653  031E                     	;# 
  1654  038C                     	;# 
  1655  038D                     	;# 
  1656  038E                     	;# 
  1657  058C                     	;# 
  1658  058C                     	;# 
  1659  058D                     	;# 
  1660  058E                     	;# 
  1661  058F                     	;# 
  1662  058F                     	;# 
  1663  0590                     	;# 
  1664  0591                     	;# 
  1665  0592                     	;# 
  1666  0593                     	;# 
  1667  059C                     	;# 
  1668  059C                     	;# 
  1669  059D                     	;# 
  1670  059D                     	;# 
  1671  059E                     	;# 
  1672  059F                     	;# 
  1673  060C                     	;# 
  1674  060D                     	;# 
  1675  060E                     	;# 
  1676  060F                     	;# 
  1677  0610                     	;# 
  1678  0611                     	;# 
  1679  0612                     	;# 
  1680  0613                     	;# 
  1681  0614                     	;# 
  1682  070C                     	;# 
  1683  070D                     	;# 
  1684  070E                     	;# 
  1685  070F                     	;# 
  1686  0710                     	;# 
  1687  0711                     	;# 
  1688  0712                     	;# 
  1689  0713                     	;# 
  1690  0716                     	;# 
  1691  0717                     	;# 
  1692  0718                     	;# 
  1693  0719                     	;# 
  1694  071A                     	;# 
  1695  071B                     	;# 
  1696  071C                     	;# 
  1697  071D                     	;# 
  1698  0796                     	;# 
  1699  0797                     	;# 
  1700  0798                     	;# 
  1701  0799                     	;# 
  1702  079A                     	;# 
  1703  079B                     	;# 
  1704  080C                     	;# 
  1705  080D                     	;# 
  1706  080E                     	;# 
  1707  080F                     	;# 
  1708  0810                     	;# 
  1709  0811                     	;# 
  1710  0812                     	;# 
  1711  0813                     	;# 
  1712  0814                     	;# 
  1713  081A                     	;# 
  1714  081A                     	;# 
  1715  081B                     	;# 
  1716  081C                     	;# 
  1717  081C                     	;# 
  1718  081D                     	;# 
  1719  081E                     	;# 
  1720  081F                     	;# 
  1721  088C                     	;# 
  1722  088D                     	;# 
  1723  088E                     	;# 
  1724  088F                     	;# 
  1725  0890                     	;# 
  1726  0891                     	;# 
  1727  0892                     	;# 
  1728  0893                     	;# 
  1729  0895                     	;# 
  1730  0896                     	;# 
  1731  090C                     	;# 
  1732  090E                     	;# 
  1733  090F                     	;# 
  1734  091F                     	;# 
  1735  098F                     	;# 
  1736  098F                     	;# 
  1737  0990                     	;# 
  1738  0991                     	;# 
  1739  0992                     	;# 
  1740  0993                     	;# 
  1741  0994                     	;# 
  1742  0995                     	;# 
  1743  0996                     	;# 
  1744  0997                     	;# 
  1745  0A19                     	;# 
  1746  0A19                     	;# 
  1747  0A1A                     	;# 
  1748  0A1A                     	;# 
  1749  0A1B                     	;# 
  1750  0A1B                     	;# 
  1751  0A1B                     	;# 
  1752  0A1C                     	;# 
  1753  0A1C                     	;# 
  1754  0A1D                     	;# 
  1755  0A1D                     	;# 
  1756  0A1E                     	;# 
  1757  0A1E                     	;# 
  1758  0A1F                     	;# 
  1759  0A1F                     	;# 
  1760  0A1F                     	;# 
  1761  1E0F                     	;# 
  1762  1E10                     	;# 
  1763  1E11                     	;# 
  1764  1E12                     	;# 
  1765  1E13                     	;# 
  1766  1E14                     	;# 
  1767  1E15                     	;# 
  1768  1E16                     	;# 
  1769  1E17                     	;# 
  1770  1E18                     	;# 
  1771  1E19                     	;# 
  1772  1E1A                     	;# 
  1773  1E1B                     	;# 
  1774  1E1C                     	;# 
  1775  1E1D                     	;# 
  1776  1E1E                     	;# 
  1777  1E1F                     	;# 
  1778  1E20                     	;# 
  1779  1E21                     	;# 
  1780  1E22                     	;# 
  1781  1E23                     	;# 
  1782  1E24                     	;# 
  1783  1E25                     	;# 
  1784  1E26                     	;# 
  1785  1E27                     	;# 
  1786  1E28                     	;# 
  1787  1E29                     	;# 
  1788  1E2A                     	;# 
  1789  1E2B                     	;# 
  1790  1E2C                     	;# 
  1791  1E2D                     	;# 
  1792  1E2E                     	;# 
  1793  1E2F                     	;# 
  1794  1E30                     	;# 
  1795  1E31                     	;# 
  1796  1E32                     	;# 
  1797  1E33                     	;# 
  1798  1E34                     	;# 
  1799  1E35                     	;# 
  1800  1E36                     	;# 
  1801  1E37                     	;# 
  1802  1E8F                     	;# 
  1803  1E90                     	;# 
  1804  1E91                     	;# 
  1805  1E92                     	;# 
  1806  1E93                     	;# 
  1807  1E9C                     	;# 
  1808  1EA1                     	;# 
  1809  1EA2                     	;# 
  1810  1EB1                     	;# 
  1811  1EBB                     	;# 
  1812  1EBC                     	;# 
  1813  1EBD                     	;# 
  1814  1EBE                     	;# 
  1815  1EC3                     	;# 
  1816  1EC5                     	;# 
  1817  1EC6                     	;# 
  1818  1EC7                     	;# 
  1819  1EC8                     	;# 
  1820  1EC9                     	;# 
  1821  1ECA                     	;# 
  1822  1ECB                     	;# 
  1823  1ECC                     	;# 
  1824  1ECD                     	;# 
  1825  1ECE                     	;# 
  1826  1F10                     	;# 
  1827  1F11                     	;# 
  1828  1F12                     	;# 
  1829  1F13                     	;# 
  1830  1F14                     	;# 
  1831  1F15                     	;# 
  1832  1F16                     	;# 
  1833  1F17                     	;# 
  1834  1F18                     	;# 
  1835  1F19                     	;# 
  1836  1F1A                     	;# 
  1837  1F1B                     	;# 
  1838  1F1C                     	;# 
  1839  1F1D                     	;# 
  1840  1F1E                     	;# 
  1841  1F1F                     	;# 
  1842  1F20                     	;# 
  1843  1F21                     	;# 
  1844  1F22                     	;# 
  1845  1F23                     	;# 
  1846  1F24                     	;# 
  1847  1F25                     	;# 
  1848  1F26                     	;# 
  1849  1F27                     	;# 
  1850  1F28                     	;# 
  1851  1F29                     	;# 
  1852  1F2A                     	;# 
  1853  1F2B                     	;# 
  1854  1F2C                     	;# 
  1855  1F2D                     	;# 
  1856  1F2E                     	;# 
  1857  1F2F                     	;# 
  1858  1F30                     	;# 
  1859  1F31                     	;# 
  1860  1F32                     	;# 
  1861  1F38                     	;# 
  1862  1F39                     	;# 
  1863  1F3A                     	;# 
  1864  1F3B                     	;# 
  1865  1F3C                     	;# 
  1866  1F3D                     	;# 
  1867  1F3E                     	;# 
  1868  1F3F                     	;# 
  1869  1F43                     	;# 
  1870  1F44                     	;# 
  1871  1F45                     	;# 
  1872  1F46                     	;# 
  1873  1F47                     	;# 
  1874  1F48                     	;# 
  1875  1F49                     	;# 
  1876  1F4A                     	;# 
  1877  1F4E                     	;# 
  1878  1F4F                     	;# 
  1879  1F50                     	;# 
  1880  1F51                     	;# 
  1881  1F52                     	;# 
  1882  1F53                     	;# 
  1883  1F54                     	;# 
  1884  1F55                     	;# 
  1885  1F59                     	;# 
  1886  1F5A                     	;# 
  1887  1F5B                     	;# 
  1888  1F5C                     	;# 
  1889  1F5D                     	;# 
  1890  1F64                     	;# 
  1891  1F65                     	;# 
  1892  1F66                     	;# 
  1893  1F67                     	;# 
  1894  1F68                     	;# 
  1895  1F69                     	;# 
  1896  1F6A                     	;# 
  1897  1F6B                     	;# 
  1898  1FE4                     	;# 
  1899  1FE5                     	;# 
  1900  1FE6                     	;# 
  1901  1FE7                     	;# 
  1902  1FE8                     	;# 
  1903  1FE8                     	;# 
  1904  1FE9                     	;# 
  1905  1FEA                     	;# 
  1906  1FEB                     	;# 
  1907  1FED                     	;# 
  1908  1FEE                     	;# 
  1909  1FEF                     	;# 
  1910  0000                     	;# 
  1911  0001                     	;# 
  1912  0002                     	;# 
  1913  0003                     	;# 
  1914  0004                     	;# 
  1915  0005                     	;# 
  1916  0006                     	;# 
  1917  0007                     	;# 
  1918  0008                     	;# 
  1919  0009                     	;# 
  1920  000A                     	;# 
  1921  000B                     	;# 
  1922  000C                     	;# 
  1923  000D                     	;# 
  1924  000E                     	;# 
  1925  000F                     	;# 
  1926  0010                     	;# 
  1927  0012                     	;# 
  1928  0013                     	;# 
  1929  0014                     	;# 
  1930  0015                     	;# 
  1931  0016                     	;# 
  1932  0018                     	;# 
  1933  0019                     	;# 
  1934  001A                     	;# 
  1935  001B                     	;# 
  1936  001C                     	;# 
  1937  009B                     	;# 
  1938  009B                     	;# 
  1939  009C                     	;# 
  1940  009D                     	;# 
  1941  009E                     	;# 
  1942  009F                     	;# 
  1943  0119                     	;# 
  1944  0119                     	;# 
  1945  0119                     	;# 
  1946  011A                     	;# 
  1947  011A                     	;# 
  1948  011A                     	;# 
  1949  011B                     	;# 
  1950  011B                     	;# 
  1951  011B                     	;# 
  1952  011B                     	;# 
  1953  011B                     	;# 
  1954  011C                     	;# 
  1955  011C                     	;# 
  1956  011C                     	;# 
  1957  011D                     	;# 
  1958  011D                     	;# 
  1959  011D                     	;# 
  1960  011E                     	;# 
  1961  011E                     	;# 
  1962  011E                     	;# 
  1963  011F                     	;# 
  1964  011F                     	;# 
  1965  011F                     	;# 
  1966  011F                     	;# 
  1967  011F                     	;# 
  1968  018C                     	;# 
  1969  018D                     	;# 
  1970  018E                     	;# 
  1971  018F                     	;# 
  1972  0190                     	;# 
  1973  0191                     	;# 
  1974  0192                     	;# 
  1975  0196                     	;# 
  1976  0197                     	;# 
  1977  0198                     	;# 
  1978  0199                     	;# 
  1979  019A                     	;# 
  1980  019B                     	;# 
  1981  019C                     	;# 
  1982  020C                     	;# 
  1983  020C                     	;# 
  1984  020D                     	;# 
  1985  020E                     	;# 
  1986  020F                     	;# 
  1987  020F                     	;# 
  1988  0210                     	;# 
  1989  0210                     	;# 
  1990  0211                     	;# 
  1991  0211                     	;# 
  1992  028C                     	;# 
  1993  028C                     	;# 
  1994  028D                     	;# 
  1995  028D                     	;# 
  1996  028E                     	;# 
  1997  028F                     	;# 
  1998  0290                     	;# 
  1999  0291                     	;# 
  2000  030C                     	;# 
  2001  030C                     	;# 
  2002  030D                     	;# 
  2003  030E                     	;# 
  2004  030F                     	;# 
  2005  0310                     	;# 
  2006  0310                     	;# 
  2007  0311                     	;# 
  2008  0312                     	;# 
  2009  0313                     	;# 
  2010  0314                     	;# 
  2011  0315                     	;# 
  2012  0316                     	;# 
  2013  0318                     	;# 
  2014  0319                     	;# 
  2015  031A                     	;# 
  2016  031C                     	;# 
  2017  031D                     	;# 
  2018  031E                     	;# 
  2019  038C                     	;# 
  2020  038D                     	;# 
  2021  038E                     	;# 
  2022  058C                     	;# 
  2023  058C                     	;# 
  2024  058D                     	;# 
  2025  058E                     	;# 
  2026  058F                     	;# 
  2027  058F                     	;# 
  2028  0590                     	;# 
  2029  0591                     	;# 
  2030  0592                     	;# 
  2031  0593                     	;# 
  2032  059C                     	;# 
  2033  059C                     	;# 
  2034  059D                     	;# 
  2035  059D                     	;# 
  2036  059E                     	;# 
  2037  059F                     	;# 
  2038  060C                     	;# 
  2039  060D                     	;# 
  2040  060E                     	;# 
  2041  060F                     	;# 
  2042  0610                     	;# 
  2043  0611                     	;# 
  2044  0612                     	;# 
  2045  0613                     	;# 
  2046  0614                     	;# 
  2047  070C                     	;# 
  2048  070D                     	;# 
  2049  070E                     	;# 
  2050  070F                     	;# 
  2051  0710                     	;# 
  2052  0711                     	;# 
  2053  0712                     	;# 
  2054  0713                     	;# 
  2055  0716                     	;# 
  2056  0717                     	;# 
  2057  0718                     	;# 
  2058  0719                     	;# 
  2059  071A                     	;# 
  2060  071B                     	;# 
  2061  071C                     	;# 
  2062  071D                     	;# 
  2063  0796                     	;# 
  2064  0797                     	;# 
  2065  0798                     	;# 
  2066  0799                     	;# 
  2067  079A                     	;# 
  2068  079B                     	;# 
  2069  080C                     	;# 
  2070  080D                     	;# 
  2071  080E                     	;# 
  2072  080F                     	;# 
  2073  0810                     	;# 
  2074  0811                     	;# 
  2075  0812                     	;# 
  2076  0813                     	;# 
  2077  0814                     	;# 
  2078  081A                     	;# 
  2079  081A                     	;# 
  2080  081B                     	;# 
  2081  081C                     	;# 
  2082  081C                     	;# 
  2083  081D                     	;# 
  2084  081E                     	;# 
  2085  081F                     	;# 
  2086  088C                     	;# 
  2087  088D                     	;# 
  2088  088E                     	;# 
  2089  088F                     	;# 
  2090  0890                     	;# 
  2091  0891                     	;# 
  2092  0892                     	;# 
  2093  0893                     	;# 
  2094  0895                     	;# 
  2095  0896                     	;# 
  2096  090C                     	;# 
  2097  090E                     	;# 
  2098  090F                     	;# 
  2099  091F                     	;# 
  2100  098F                     	;# 
  2101  098F                     	;# 
  2102  0990                     	;# 
  2103  0991                     	;# 
  2104  0992                     	;# 
  2105  0993                     	;# 
  2106  0994                     	;# 
  2107  0995                     	;# 
  2108  0996                     	;# 
  2109  0997                     	;# 
  2110  0A19                     	;# 
  2111  0A19                     	;# 
  2112  0A1A                     	;# 
  2113  0A1A                     	;# 
  2114  0A1B                     	;# 
  2115  0A1B                     	;# 
  2116  0A1B                     	;# 
  2117  0A1C                     	;# 
  2118  0A1C                     	;# 
  2119  0A1D                     	;# 
  2120  0A1D                     	;# 
  2121  0A1E                     	;# 
  2122  0A1E                     	;# 
  2123  0A1F                     	;# 
  2124  0A1F                     	;# 
  2125  0A1F                     	;# 
  2126  1E0F                     	;# 
  2127  1E10                     	;# 
  2128  1E11                     	;# 
  2129  1E12                     	;# 
  2130  1E13                     	;# 
  2131  1E14                     	;# 
  2132  1E15                     	;# 
  2133  1E16                     	;# 
  2134  1E17                     	;# 
  2135  1E18                     	;# 
  2136  1E19                     	;# 
  2137  1E1A                     	;# 
  2138  1E1B                     	;# 
  2139  1E1C                     	;# 
  2140  1E1D                     	;# 
  2141  1E1E                     	;# 
  2142  1E1F                     	;# 
  2143  1E20                     	;# 
  2144  1E21                     	;# 
  2145  1E22                     	;# 
  2146  1E23                     	;# 
  2147  1E24                     	;# 
  2148  1E25                     	;# 
  2149  1E26                     	;# 
  2150  1E27                     	;# 
  2151  1E28                     	;# 
  2152  1E29                     	;# 
  2153  1E2A                     	;# 
  2154  1E2B                     	;# 
  2155  1E2C                     	;# 
  2156  1E2D                     	;# 
  2157  1E2E                     	;# 
  2158  1E2F                     	;# 
  2159  1E30                     	;# 
  2160  1E31                     	;# 
  2161  1E32                     	;# 
  2162  1E33                     	;# 
  2163  1E34                     	;# 
  2164  1E35                     	;# 
  2165  1E36                     	;# 
  2166  1E37                     	;# 
  2167  1E8F                     	;# 
  2168  1E90                     	;# 
  2169  1E91                     	;# 
  2170  1E92                     	;# 
  2171  1E93                     	;# 
  2172  1E9C                     	;# 
  2173  1EA1                     	;# 
  2174  1EA2                     	;# 
  2175  1EB1                     	;# 
  2176  1EBB                     	;# 
  2177  1EBC                     	;# 
  2178  1EBD                     	;# 
  2179  1EBE                     	;# 
  2180  1EC3                     	;# 
  2181  1EC5                     	;# 
  2182  1EC6                     	;# 
  2183  1EC7                     	;# 
  2184  1EC8                     	;# 
  2185  1EC9                     	;# 
  2186  1ECA                     	;# 
  2187  1ECB                     	;# 
  2188  1ECC                     	;# 
  2189  1ECD                     	;# 
  2190  1ECE                     	;# 
  2191  1F10                     	;# 
  2192  1F11                     	;# 
  2193  1F12                     	;# 
  2194  1F13                     	;# 
  2195  1F14                     	;# 
  2196  1F15                     	;# 
  2197  1F16                     	;# 
  2198  1F17                     	;# 
  2199  1F18                     	;# 
  2200  1F19                     	;# 
  2201  1F1A                     	;# 
  2202  1F1B                     	;# 
  2203  1F1C                     	;# 
  2204  1F1D                     	;# 
  2205  1F1E                     	;# 
  2206  1F1F                     	;# 
  2207  1F20                     	;# 
  2208  1F21                     	;# 
  2209  1F22                     	;# 
  2210  1F23                     	;# 
  2211  1F24                     	;# 
  2212  1F25                     	;# 
  2213  1F26                     	;# 
  2214  1F27                     	;# 
  2215  1F28                     	;# 
  2216  1F29                     	;# 
  2217  1F2A                     	;# 
  2218  1F2B                     	;# 
  2219  1F2C                     	;# 
  2220  1F2D                     	;# 
  2221  1F2E                     	;# 
  2222  1F2F                     	;# 
  2223  1F30                     	;# 
  2224  1F31                     	;# 
  2225  1F32                     	;# 
  2226  1F38                     	;# 
  2227  1F39                     	;# 
  2228  1F3A                     	;# 
  2229  1F3B                     	;# 
  2230  1F3C                     	;# 
  2231  1F3D                     	;# 
  2232  1F3E                     	;# 
  2233  1F3F                     	;# 
  2234  1F43                     	;# 
  2235  1F44                     	;# 
  2236  1F45                     	;# 
  2237  1F46                     	;# 
  2238  1F47                     	;# 
  2239  1F48                     	;# 
  2240  1F49                     	;# 
  2241  1F4A                     	;# 
  2242  1F4E                     	;# 
  2243  1F4F                     	;# 
  2244  1F50                     	;# 
  2245  1F51                     	;# 
  2246  1F52                     	;# 
  2247  1F53                     	;# 
  2248  1F54                     	;# 
  2249  1F55                     	;# 
  2250  1F59                     	;# 
  2251  1F5A                     	;# 
  2252  1F5B                     	;# 
  2253  1F5C                     	;# 
  2254  1F5D                     	;# 
  2255  1F64                     	;# 
  2256  1F65                     	;# 
  2257  1F66                     	;# 
  2258  1F67                     	;# 
  2259  1F68                     	;# 
  2260  1F69                     	;# 
  2261  1F6A                     	;# 
  2262  1F6B                     	;# 
  2263  1FE4                     	;# 
  2264  1FE5                     	;# 
  2265  1FE6                     	;# 
  2266  1FE7                     	;# 
  2267  1FE8                     	;# 
  2268  1FE8                     	;# 
  2269  1FE9                     	;# 
  2270  1FEA                     	;# 
  2271  1FEB                     	;# 
  2272  1FED                     	;# 
  2273  1FEE                     	;# 
  2274  1FEF                     	;# 
  2275  0000                     	;# 
  2276  0001                     	;# 
  2277  0002                     	;# 
  2278  0003                     	;# 
  2279  0004                     	;# 
  2280  0005                     	;# 
  2281  0006                     	;# 
  2282  0007                     	;# 
  2283  0008                     	;# 
  2284  0009                     	;# 
  2285  000A                     	;# 
  2286  000B                     	;# 
  2287  000C                     	;# 
  2288  000D                     	;# 
  2289  000E                     	;# 
  2290  000F                     	;# 
  2291  0010                     	;# 
  2292  0012                     	;# 
  2293  0013                     	;# 
  2294  0014                     	;# 
  2295  0015                     	;# 
  2296  0016                     	;# 
  2297  0018                     	;# 
  2298  0019                     	;# 
  2299  001A                     	;# 
  2300  001B                     	;# 
  2301  001C                     	;# 
  2302  009B                     	;# 
  2303  009B                     	;# 
  2304  009C                     	;# 
  2305  009D                     	;# 
  2306  009E                     	;# 
  2307  009F                     	;# 
  2308  0119                     	;# 
  2309  0119                     	;# 
  2310  0119                     	;# 
  2311  011A                     	;# 
  2312  011A                     	;# 
  2313  011A                     	;# 
  2314  011B                     	;# 
  2315  011B                     	;# 
  2316  011B                     	;# 
  2317  011B                     	;# 
  2318  011B                     	;# 
  2319  011C                     	;# 
  2320  011C                     	;# 
  2321  011C                     	;# 
  2322  011D                     	;# 
  2323  011D                     	;# 
  2324  011D                     	;# 
  2325  011E                     	;# 
  2326  011E                     	;# 
  2327  011E                     	;# 
  2328  011F                     	;# 
  2329  011F                     	;# 
  2330  011F                     	;# 
  2331  011F                     	;# 
  2332  011F                     	;# 
  2333  018C                     	;# 
  2334  018D                     	;# 
  2335  018E                     	;# 
  2336  018F                     	;# 
  2337  0190                     	;# 
  2338  0191                     	;# 
  2339  0192                     	;# 
  2340  0196                     	;# 
  2341  0197                     	;# 
  2342  0198                     	;# 
  2343  0199                     	;# 
  2344  019A                     	;# 
  2345  019B                     	;# 
  2346  019C                     	;# 
  2347  020C                     	;# 
  2348  020C                     	;# 
  2349  020D                     	;# 
  2350  020E                     	;# 
  2351  020F                     	;# 
  2352  020F                     	;# 
  2353  0210                     	;# 
  2354  0210                     	;# 
  2355  0211                     	;# 
  2356  0211                     	;# 
  2357  028C                     	;# 
  2358  028C                     	;# 
  2359  028D                     	;# 
  2360  028D                     	;# 
  2361  028E                     	;# 
  2362  028F                     	;# 
  2363  0290                     	;# 
  2364  0291                     	;# 
  2365  030C                     	;# 
  2366  030C                     	;# 
  2367  030D                     	;# 
  2368  030E                     	;# 
  2369  030F                     	;# 
  2370  0310                     	;# 
  2371  0310                     	;# 
  2372  0311                     	;# 
  2373  0312                     	;# 
  2374  0313                     	;# 
  2375  0314                     	;# 
  2376  0315                     	;# 
  2377  0316                     	;# 
  2378  0318                     	;# 
  2379  0319                     	;# 
  2380  031A                     	;# 
  2381  031C                     	;# 
  2382  031D                     	;# 
  2383  031E                     	;# 
  2384  038C                     	;# 
  2385  038D                     	;# 
  2386  038E                     	;# 
  2387  058C                     	;# 
  2388  058C                     	;# 
  2389  058D                     	;# 
  2390  058E                     	;# 
  2391  058F                     	;# 
  2392  058F                     	;# 
  2393  0590                     	;# 
  2394  0591                     	;# 
  2395  0592                     	;# 
  2396  0593                     	;# 
  2397  059C                     	;# 
  2398  059C                     	;# 
  2399  059D                     	;# 
  2400  059D                     	;# 
  2401  059E                     	;# 
  2402  059F                     	;# 
  2403  060C                     	;# 
  2404  060D                     	;# 
  2405  060E                     	;# 
  2406  060F                     	;# 
  2407  0610                     	;# 
  2408  0611                     	;# 
  2409  0612                     	;# 
  2410  0613                     	;# 
  2411  0614                     	;# 
  2412  070C                     	;# 
  2413  070D                     	;# 
  2414  070E                     	;# 
  2415  070F                     	;# 
  2416  0710                     	;# 
  2417  0711                     	;# 
  2418  0712                     	;# 
  2419  0713                     	;# 
  2420  0716                     	;# 
  2421  0717                     	;# 
  2422  0718                     	;# 
  2423  0719                     	;# 
  2424  071A                     	;# 
  2425  071B                     	;# 
  2426  071C                     	;# 
  2427  071D                     	;# 
  2428  0796                     	;# 
  2429  0797                     	;# 
  2430  0798                     	;# 
  2431  0799                     	;# 
  2432  079A                     	;# 
  2433  079B                     	;# 
  2434  080C                     	;# 
  2435  080D                     	;# 
  2436  080E                     	;# 
  2437  080F                     	;# 
  2438  0810                     	;# 
  2439  0811                     	;# 
  2440  0812                     	;# 
  2441  0813                     	;# 
  2442  0814                     	;# 
  2443  081A                     	;# 
  2444  081A                     	;# 
  2445  081B                     	;# 
  2446  081C                     	;# 
  2447  081C                     	;# 
  2448  081D                     	;# 
  2449  081E                     	;# 
  2450  081F                     	;# 
  2451  088C                     	;# 
  2452  088D                     	;# 
  2453  088E                     	;# 
  2454  088F                     	;# 
  2455  0890                     	;# 
  2456  0891                     	;# 
  2457  0892                     	;# 
  2458  0893                     	;# 
  2459  0895                     	;# 
  2460  0896                     	;# 
  2461  090C                     	;# 
  2462  090E                     	;# 
  2463  090F                     	;# 
  2464  091F                     	;# 
  2465  098F                     	;# 
  2466  098F                     	;# 
  2467  0990                     	;# 
  2468  0991                     	;# 
  2469  0992                     	;# 
  2470  0993                     	;# 
  2471  0994                     	;# 
  2472  0995                     	;# 
  2473  0996                     	;# 
  2474  0997                     	;# 
  2475  0A19                     	;# 
  2476  0A19                     	;# 
  2477  0A1A                     	;# 
  2478  0A1A                     	;# 
  2479  0A1B                     	;# 
  2480  0A1B                     	;# 
  2481  0A1B                     	;# 
  2482  0A1C                     	;# 
  2483  0A1C                     	;# 
  2484  0A1D                     	;# 
  2485  0A1D                     	;# 
  2486  0A1E                     	;# 
  2487  0A1E                     	;# 
  2488  0A1F                     	;# 
  2489  0A1F                     	;# 
  2490  0A1F                     	;# 
  2491  1E0F                     	;# 
  2492  1E10                     	;# 
  2493  1E11                     	;# 
  2494  1E12                     	;# 
  2495  1E13                     	;# 
  2496  1E14                     	;# 
  2497  1E15                     	;# 
  2498  1E16                     	;# 
  2499  1E17                     	;# 
  2500  1E18                     	;# 
  2501  1E19                     	;# 
  2502  1E1A                     	;# 
  2503  1E1B                     	;# 
  2504  1E1C                     	;# 
  2505  1E1D                     	;# 
  2506  1E1E                     	;# 
  2507  1E1F                     	;# 
  2508  1E20                     	;# 
  2509  1E21                     	;# 
  2510  1E22                     	;# 
  2511  1E23                     	;# 
  2512  1E24                     	;# 
  2513  1E25                     	;# 
  2514  1E26                     	;# 
  2515  1E27                     	;# 
  2516  1E28                     	;# 
  2517  1E29                     	;# 
  2518  1E2A                     	;# 
  2519  1E2B                     	;# 
  2520  1E2C                     	;# 
  2521  1E2D                     	;# 
  2522  1E2E                     	;# 
  2523  1E2F                     	;# 
  2524  1E30                     	;# 
  2525  1E31                     	;# 
  2526  1E32                     	;# 
  2527  1E33                     	;# 
  2528  1E34                     	;# 
  2529  1E35                     	;# 
  2530  1E36                     	;# 
  2531  1E37                     	;# 
  2532  1E8F                     	;# 
  2533  1E90                     	;# 
  2534  1E91                     	;# 
  2535  1E92                     	;# 
  2536  1E93                     	;# 
  2537  1E9C                     	;# 
  2538  1EA1                     	;# 
  2539  1EA2                     	;# 
  2540  1EB1                     	;# 
  2541  1EBB                     	;# 
  2542  1EBC                     	;# 
  2543  1EBD                     	;# 
  2544  1EBE                     	;# 
  2545  1EC3                     	;# 
  2546  1EC5                     	;# 
  2547  1EC6                     	;# 
  2548  1EC7                     	;# 
  2549  1EC8                     	;# 
  2550  1EC9                     	;# 
  2551  1ECA                     	;# 
  2552  1ECB                     	;# 
  2553  1ECC                     	;# 
  2554  1ECD                     	;# 
  2555  1ECE                     	;# 
  2556  1F10                     	;# 
  2557  1F11                     	;# 
  2558  1F12                     	;# 
  2559  1F13                     	;# 
  2560  1F14                     	;# 
  2561  1F15                     	;# 
  2562  1F16                     	;# 
  2563  1F17                     	;# 
  2564  1F18                     	;# 
  2565  1F19                     	;# 
  2566  1F1A                     	;# 
  2567  1F1B                     	;# 
  2568  1F1C                     	;# 
  2569  1F1D                     	;# 
  2570  1F1E                     	;# 
  2571  1F1F                     	;# 
  2572  1F20                     	;# 
  2573  1F21                     	;# 
  2574  1F22                     	;# 
  2575  1F23                     	;# 
  2576  1F24                     	;# 
  2577  1F25                     	;# 
  2578  1F26                     	;# 
  2579  1F27                     	;# 
  2580  1F28                     	;# 
  2581  1F29                     	;# 
  2582  1F2A                     	;# 
  2583  1F2B                     	;# 
  2584  1F2C                     	;# 
  2585  1F2D                     	;# 
  2586  1F2E                     	;# 
  2587  1F2F                     	;# 
  2588  1F30                     	;# 
  2589  1F31                     	;# 
  2590  1F32                     	;# 
  2591  1F38                     	;# 
  2592  1F39                     	;# 
  2593  1F3A                     	;# 
  2594  1F3B                     	;# 
  2595  1F3C                     	;# 
  2596  1F3D                     	;# 
  2597  1F3E                     	;# 
  2598  1F3F                     	;# 
  2599  1F43                     	;# 
  2600  1F44                     	;# 
  2601  1F45                     	;# 
  2602  1F46                     	;# 
  2603  1F47                     	;# 
  2604  1F48                     	;# 
  2605  1F49                     	;# 
  2606  1F4A                     	;# 
  2607  1F4E                     	;# 
  2608  1F4F                     	;# 
  2609  1F50                     	;# 
  2610  1F51                     	;# 
  2611  1F52                     	;# 
  2612  1F53                     	;# 
  2613  1F54                     	;# 
  2614  1F55                     	;# 
  2615  1F59                     	;# 
  2616  1F5A                     	;# 
  2617  1F5B                     	;# 
  2618  1F5C                     	;# 
  2619  1F5D                     	;# 
  2620  1F64                     	;# 
  2621  1F65                     	;# 
  2622  1F66                     	;# 
  2623  1F67                     	;# 
  2624  1F68                     	;# 
  2625  1F69                     	;# 
  2626  1F6A                     	;# 
  2627  1F6B                     	;# 
  2628  1FE4                     	;# 
  2629  1FE5                     	;# 
  2630  1FE6                     	;# 
  2631  1FE7                     	;# 
  2632  1FE8                     	;# 
  2633  1FE8                     	;# 
  2634  1FE9                     	;# 
  2635  1FEA                     	;# 
  2636  1FEB                     	;# 
  2637  1FED                     	;# 
  2638  1FEE                     	;# 
  2639  1FEF                     	;# 
  2640  0000                     	;# 
  2641  0001                     	;# 
  2642  0002                     	;# 
  2643  0003                     	;# 
  2644  0004                     	;# 
  2645  0005                     	;# 
  2646  0006                     	;# 
  2647  0007                     	;# 
  2648  0008                     	;# 
  2649  0009                     	;# 
  2650  000A                     	;# 
  2651  000B                     	;# 
  2652  000C                     	;# 
  2653  000D                     	;# 
  2654  000E                     	;# 
  2655  000F                     	;# 
  2656  0010                     	;# 
  2657  0012                     	;# 
  2658  0013                     	;# 
  2659  0014                     	;# 
  2660  0015                     	;# 
  2661  0016                     	;# 
  2662  0018                     	;# 
  2663  0019                     	;# 
  2664  001A                     	;# 
  2665  001B                     	;# 
  2666  001C                     	;# 
  2667  009B                     	;# 
  2668  009B                     	;# 
  2669  009C                     	;# 
  2670  009D                     	;# 
  2671  009E                     	;# 
  2672  009F                     	;# 
  2673  0119                     	;# 
  2674  0119                     	;# 
  2675  0119                     	;# 
  2676  011A                     	;# 
  2677  011A                     	;# 
  2678  011A                     	;# 
  2679  011B                     	;# 
  2680  011B                     	;# 
  2681  011B                     	;# 
  2682  011B                     	;# 
  2683  011B                     	;# 
  2684  011C                     	;# 
  2685  011C                     	;# 
  2686  011C                     	;# 
  2687  011D                     	;# 
  2688  011D                     	;# 
  2689  011D                     	;# 
  2690  011E                     	;# 
  2691  011E                     	;# 
  2692  011E                     	;# 
  2693  011F                     	;# 
  2694  011F                     	;# 
  2695  011F                     	;# 
  2696  011F                     	;# 
  2697  011F                     	;# 
  2698  018C                     	;# 
  2699  018D                     	;# 
  2700  018E                     	;# 
  2701  018F                     	;# 
  2702  0190                     	;# 
  2703  0191                     	;# 
  2704  0192                     	;# 
  2705  0196                     	;# 
  2706  0197                     	;# 
  2707  0198                     	;# 
  2708  0199                     	;# 
  2709  019A                     	;# 
  2710  019B                     	;# 
  2711  019C                     	;# 
  2712  020C                     	;# 
  2713  020C                     	;# 
  2714  020D                     	;# 
  2715  020E                     	;# 
  2716  020F                     	;# 
  2717  020F                     	;# 
  2718  0210                     	;# 
  2719  0210                     	;# 
  2720  0211                     	;# 
  2721  0211                     	;# 
  2722  028C                     	;# 
  2723  028C                     	;# 
  2724  028D                     	;# 
  2725  028D                     	;# 
  2726  028E                     	;# 
  2727  028F                     	;# 
  2728  0290                     	;# 
  2729  0291                     	;# 
  2730  030C                     	;# 
  2731  030C                     	;# 
  2732  030D                     	;# 
  2733  030E                     	;# 
  2734  030F                     	;# 
  2735  0310                     	;# 
  2736  0310                     	;# 
  2737  0311                     	;# 
  2738  0312                     	;# 
  2739  0313                     	;# 
  2740  0314                     	;# 
  2741  0315                     	;# 
  2742  0316                     	;# 
  2743  0318                     	;# 
  2744  0319                     	;# 
  2745  031A                     	;# 
  2746  031C                     	;# 
  2747  031D                     	;# 
  2748  031E                     	;# 
  2749  038C                     	;# 
  2750  038D                     	;# 
  2751  038E                     	;# 
  2752  058C                     	;# 
  2753  058C                     	;# 
  2754  058D                     	;# 
  2755  058E                     	;# 
  2756  058F                     	;# 
  2757  058F                     	;# 
  2758  0590                     	;# 
  2759  0591                     	;# 
  2760  0592                     	;# 
  2761  0593                     	;# 
  2762  059C                     	;# 
  2763  059C                     	;# 
  2764  059D                     	;# 
  2765  059D                     	;# 
  2766  059E                     	;# 
  2767  059F                     	;# 
  2768  060C                     	;# 
  2769  060D                     	;# 
  2770  060E                     	;# 
  2771  060F                     	;# 
  2772  0610                     	;# 
  2773  0611                     	;# 
  2774  0612                     	;# 
  2775  0613                     	;# 
  2776  0614                     	;# 
  2777  070C                     	;# 
  2778  070D                     	;# 
  2779  070E                     	;# 
  2780  070F                     	;# 
  2781  0710                     	;# 
  2782  0711                     	;# 
  2783  0712                     	;# 
  2784  0713                     	;# 
  2785  0716                     	;# 
  2786  0717                     	;# 
  2787  0718                     	;# 
  2788  0719                     	;# 
  2789  071A                     	;# 
  2790  071B                     	;# 
  2791  071C                     	;# 
  2792  071D                     	;# 
  2793  0796                     	;# 
  2794  0797                     	;# 
  2795  0798                     	;# 
  2796  0799                     	;# 
  2797  079A                     	;# 
  2798  079B                     	;# 
  2799  080C                     	;# 
  2800  080D                     	;# 
  2801  080E                     	;# 
  2802  080F                     	;# 
  2803  0810                     	;# 
  2804  0811                     	;# 
  2805  0812                     	;# 
  2806  0813                     	;# 
  2807  0814                     	;# 
  2808  081A                     	;# 
  2809  081A                     	;# 
  2810  081B                     	;# 
  2811  081C                     	;# 
  2812  081C                     	;# 
  2813  081D                     	;# 
  2814  081E                     	;# 
  2815  081F                     	;# 
  2816  088C                     	;# 
  2817  088D                     	;# 
  2818  088E                     	;# 
  2819  088F                     	;# 
  2820  0890                     	;# 
  2821  0891                     	;# 
  2822  0892                     	;# 
  2823  0893                     	;# 
  2824  0895                     	;# 
  2825  0896                     	;# 
  2826  090C                     	;# 
  2827  090E                     	;# 
  2828  090F                     	;# 
  2829  091F                     	;# 
  2830  098F                     	;# 
  2831  098F                     	;# 
  2832  0990                     	;# 
  2833  0991                     	;# 
  2834  0992                     	;# 
  2835  0993                     	;# 
  2836  0994                     	;# 
  2837  0995                     	;# 
  2838  0996                     	;# 
  2839  0997                     	;# 
  2840  0A19                     	;# 
  2841  0A19                     	;# 
  2842  0A1A                     	;# 
  2843  0A1A                     	;# 
  2844  0A1B                     	;# 
  2845  0A1B                     	;# 
  2846  0A1B                     	;# 
  2847  0A1C                     	;# 
  2848  0A1C                     	;# 
  2849  0A1D                     	;# 
  2850  0A1D                     	;# 
  2851  0A1E                     	;# 
  2852  0A1E                     	;# 
  2853  0A1F                     	;# 
  2854  0A1F                     	;# 
  2855  0A1F                     	;# 
  2856  1E0F                     	;# 
  2857  1E10                     	;# 
  2858  1E11                     	;# 
  2859  1E12                     	;# 
  2860  1E13                     	;# 
  2861  1E14                     	;# 
  2862  1E15                     	;# 
  2863  1E16                     	;# 
  2864  1E17                     	;# 
  2865  1E18                     	;# 
  2866  1E19                     	;# 
  2867  1E1A                     	;# 
  2868  1E1B                     	;# 
  2869  1E1C                     	;# 
  2870  1E1D                     	;# 
  2871  1E1E                     	;# 
  2872  1E1F                     	;# 
  2873  1E20                     	;# 
  2874  1E21                     	;# 
  2875  1E22                     	;# 
  2876  1E23                     	;# 
  2877  1E24                     	;# 
  2878  1E25                     	;# 
  2879  1E26                     	;# 
  2880  1E27                     	;# 
  2881  1E28                     	;# 
  2882  1E29                     	;# 
  2883  1E2A                     	;# 
  2884  1E2B                     	;# 
  2885  1E2C                     	;# 
  2886  1E2D                     	;# 
  2887  1E2E                     	;# 
  2888  1E2F                     	;# 
  2889  1E30                     	;# 
  2890  1E31                     	;# 
  2891  1E32                     	;# 
  2892  1E33                     	;# 
  2893  1E34                     	;# 
  2894  1E35                     	;# 
  2895  1E36                     	;# 
  2896  1E37                     	;# 
  2897  1E8F                     	;# 
  2898  1E90                     	;# 
  2899  1E91                     	;# 
  2900  1E92                     	;# 
  2901  1E93                     	;# 
  2902  1E9C                     	;# 
  2903  1EA1                     	;# 
  2904  1EA2                     	;# 
  2905  1EB1                     	;# 
  2906  1EBB                     	;# 
  2907  1EBC                     	;# 
  2908  1EBD                     	;# 
  2909  1EBE                     	;# 
  2910  1EC3                     	;# 
  2911  1EC5                     	;# 
  2912  1EC6                     	;# 
  2913  1EC7                     	;# 
  2914  1EC8                     	;# 
  2915  1EC9                     	;# 
  2916  1ECA                     	;# 
  2917  1ECB                     	;# 
  2918  1ECC                     	;# 
  2919  1ECD                     	;# 
  2920  1ECE                     	;# 
  2921  1F10                     	;# 
  2922  1F11                     	;# 
  2923  1F12                     	;# 
  2924  1F13                     	;# 
  2925  1F14                     	;# 
  2926  1F15                     	;# 
  2927  1F16                     	;# 
  2928  1F17                     	;# 
  2929  1F18                     	;# 
  2930  1F19                     	;# 
  2931  1F1A                     	;# 
  2932  1F1B                     	;# 
  2933  1F1C                     	;# 
  2934  1F1D                     	;# 
  2935  1F1E                     	;# 
  2936  1F1F                     	;# 
  2937  1F20                     	;# 
  2938  1F21                     	;# 
  2939  1F22                     	;# 
  2940  1F23                     	;# 
  2941  1F24                     	;# 
  2942  1F25                     	;# 
  2943  1F26                     	;# 
  2944  1F27                     	;# 
  2945  1F28                     	;# 
  2946  1F29                     	;# 
  2947  1F2A                     	;# 
  2948  1F2B                     	;# 
  2949  1F2C                     	;# 
  2950  1F2D                     	;# 
  2951  1F2E                     	;# 
  2952  1F2F                     	;# 
  2953  1F30                     	;# 
  2954  1F31                     	;# 
  2955  1F32                     	;# 
  2956  1F38                     	;# 
  2957  1F39                     	;# 
  2958  1F3A                     	;# 
  2959  1F3B                     	;# 
  2960  1F3C                     	;# 
  2961  1F3D                     	;# 
  2962  1F3E                     	;# 
  2963  1F3F                     	;# 
  2964  1F43                     	;# 
  2965  1F44                     	;# 
  2966  1F45                     	;# 
  2967  1F46                     	;# 
  2968  1F47                     	;# 
  2969  1F48                     	;# 
  2970  1F49                     	;# 
  2971  1F4A                     	;# 
  2972  1F4E                     	;# 
  2973  1F4F                     	;# 
  2974  1F50                     	;# 
  2975  1F51                     	;# 
  2976  1F52                     	;# 
  2977  1F53                     	;# 
  2978  1F54                     	;# 
  2979  1F55                     	;# 
  2980  1F59                     	;# 
  2981  1F5A                     	;# 
  2982  1F5B                     	;# 
  2983  1F5C                     	;# 
  2984  1F5D                     	;# 
  2985  1F64                     	;# 
  2986  1F65                     	;# 
  2987  1F66                     	;# 
  2988  1F67                     	;# 
  2989  1F68                     	;# 
  2990  1F69                     	;# 
  2991  1F6A                     	;# 
  2992  1F6B                     	;# 
  2993  1FE4                     	;# 
  2994  1FE5                     	;# 
  2995  1FE6                     	;# 
  2996  1FE7                     	;# 
  2997  1FE8                     	;# 
  2998  1FE8                     	;# 
  2999  1FE9                     	;# 
  3000  1FEA                     	;# 
  3001  1FEB                     	;# 
  3002  1FED                     	;# 
  3003  1FEE                     	;# 
  3004  1FEF                     	;# 
  3005  0000                     	;# 
  3006  0001                     	;# 
  3007  0002                     	;# 
  3008  0003                     	;# 
  3009  0004                     	;# 
  3010  0005                     	;# 
  3011  0006                     	;# 
  3012  0007                     	;# 
  3013  0008                     	;# 
  3014  0009                     	;# 
  3015  000A                     	;# 
  3016  000B                     	;# 
  3017  000C                     	;# 
  3018  000D                     	;# 
  3019  000E                     	;# 
  3020  000F                     	;# 
  3021  0010                     	;# 
  3022  0012                     	;# 
  3023  0013                     	;# 
  3024  0014                     	;# 
  3025  0015                     	;# 
  3026  0016                     	;# 
  3027  0018                     	;# 
  3028  0019                     	;# 
  3029  001A                     	;# 
  3030  001B                     	;# 
  3031  001C                     	;# 
  3032  009B                     	;# 
  3033  009B                     	;# 
  3034  009C                     	;# 
  3035  009D                     	;# 
  3036  009E                     	;# 
  3037  009F                     	;# 
  3038  0119                     	;# 
  3039  0119                     	;# 
  3040  0119                     	;# 
  3041  011A                     	;# 
  3042  011A                     	;# 
  3043  011A                     	;# 
  3044  011B                     	;# 
  3045  011B                     	;# 
  3046  011B                     	;# 
  3047  011B                     	;# 
  3048  011B                     	;# 
  3049  011C                     	;# 
  3050  011C                     	;# 
  3051  011C                     	;# 
  3052  011D                     	;# 
  3053  011D                     	;# 
  3054  011D                     	;# 
  3055  011E                     	;# 
  3056  011E                     	;# 
  3057  011E                     	;# 
  3058  011F                     	;# 
  3059  011F                     	;# 
  3060  011F                     	;# 
  3061  011F                     	;# 
  3062  011F                     	;# 
  3063  018C                     	;# 
  3064  018D                     	;# 
  3065  018E                     	;# 
  3066  018F                     	;# 
  3067  0190                     	;# 
  3068  0191                     	;# 
  3069  0192                     	;# 
  3070  0196                     	;# 
  3071  0197                     	;# 
  3072  0198                     	;# 
  3073  0199                     	;# 
  3074  019A                     	;# 
  3075  019B                     	;# 
  3076  019C                     	;# 
  3077  020C                     	;# 
  3078  020C                     	;# 
  3079  020D                     	;# 
  3080  020E                     	;# 
  3081  020F                     	;# 
  3082  020F                     	;# 
  3083  0210                     	;# 
  3084  0210                     	;# 
  3085  0211                     	;# 
  3086  0211                     	;# 
  3087  028C                     	;# 
  3088  028C                     	;# 
  3089  028D                     	;# 
  3090  028D                     	;# 
  3091  028E                     	;# 
  3092  028F                     	;# 
  3093  0290                     	;# 
  3094  0291                     	;# 
  3095  030C                     	;# 
  3096  030C                     	;# 
  3097  030D                     	;# 
  3098  030E                     	;# 
  3099  030F                     	;# 
  3100  0310                     	;# 
  3101  0310                     	;# 
  3102  0311                     	;# 
  3103  0312                     	;# 
  3104  0313                     	;# 
  3105  0314                     	;# 
  3106  0315                     	;# 
  3107  0316                     	;# 
  3108  0318                     	;# 
  3109  0319                     	;# 
  3110  031A                     	;# 
  3111  031C                     	;# 
  3112  031D                     	;# 
  3113  031E                     	;# 
  3114  038C                     	;# 
  3115  038D                     	;# 
  3116  038E                     	;# 
  3117  058C                     	;# 
  3118  058C                     	;# 
  3119  058D                     	;# 
  3120  058E                     	;# 
  3121  058F                     	;# 
  3122  058F                     	;# 
  3123  0590                     	;# 
  3124  0591                     	;# 
  3125  0592                     	;# 
  3126  0593                     	;# 
  3127  059C                     	;# 
  3128  059C                     	;# 
  3129  059D                     	;# 
  3130  059D                     	;# 
  3131  059E                     	;# 
  3132  059F                     	;# 
  3133  060C                     	;# 
  3134  060D                     	;# 
  3135  060E                     	;# 
  3136  060F                     	;# 
  3137  0610                     	;# 
  3138  0611                     	;# 
  3139  0612                     	;# 
  3140  0613                     	;# 
  3141  0614                     	;# 
  3142  070C                     	;# 
  3143  070D                     	;# 
  3144  070E                     	;# 
  3145  070F                     	;# 
  3146  0710                     	;# 
  3147  0711                     	;# 
  3148  0712                     	;# 
  3149  0713                     	;# 
  3150  0716                     	;# 
  3151  0717                     	;# 
  3152  0718                     	;# 
  3153  0719                     	;# 
  3154  071A                     	;# 
  3155  071B                     	;# 
  3156  071C                     	;# 
  3157  071D                     	;# 
  3158  0796                     	;# 
  3159  0797                     	;# 
  3160  0798                     	;# 
  3161  0799                     	;# 
  3162  079A                     	;# 
  3163  079B                     	;# 
  3164  080C                     	;# 
  3165  080D                     	;# 
  3166  080E                     	;# 
  3167  080F                     	;# 
  3168  0810                     	;# 
  3169  0811                     	;# 
  3170  0812                     	;# 
  3171  0813                     	;# 
  3172  0814                     	;# 
  3173  081A                     	;# 
  3174  081A                     	;# 
  3175  081B                     	;# 
  3176  081C                     	;# 
  3177  081C                     	;# 
  3178  081D                     	;# 
  3179  081E                     	;# 
  3180  081F                     	;# 
  3181  088C                     	;# 
  3182  088D                     	;# 
  3183  088E                     	;# 
  3184  088F                     	;# 
  3185  0890                     	;# 
  3186  0891                     	;# 
  3187  0892                     	;# 
  3188  0893                     	;# 
  3189  0895                     	;# 
  3190  0896                     	;# 
  3191  090C                     	;# 
  3192  090E                     	;# 
  3193  090F                     	;# 
  3194  091F                     	;# 
  3195  098F                     	;# 
  3196  098F                     	;# 
  3197  0990                     	;# 
  3198  0991                     	;# 
  3199  0992                     	;# 
  3200  0993                     	;# 
  3201  0994                     	;# 
  3202  0995                     	;# 
  3203  0996                     	;# 
  3204  0997                     	;# 
  3205  0A19                     	;# 
  3206  0A19                     	;# 
  3207  0A1A                     	;# 
  3208  0A1A                     	;# 
  3209  0A1B                     	;# 
  3210  0A1B                     	;# 
  3211  0A1B                     	;# 
  3212  0A1C                     	;# 
  3213  0A1C                     	;# 
  3214  0A1D                     	;# 
  3215  0A1D                     	;# 
  3216  0A1E                     	;# 
  3217  0A1E                     	;# 
  3218  0A1F                     	;# 
  3219  0A1F                     	;# 
  3220  0A1F                     	;# 
  3221  1E0F                     	;# 
  3222  1E10                     	;# 
  3223  1E11                     	;# 
  3224  1E12                     	;# 
  3225  1E13                     	;# 
  3226  1E14                     	;# 
  3227  1E15                     	;# 
  3228  1E16                     	;# 
  3229  1E17                     	;# 
  3230  1E18                     	;# 
  3231  1E19                     	;# 
  3232  1E1A                     	;# 
  3233  1E1B                     	;# 
  3234  1E1C                     	;# 
  3235  1E1D                     	;# 
  3236  1E1E                     	;# 
  3237  1E1F                     	;# 
  3238  1E20                     	;# 
  3239  1E21                     	;# 
  3240  1E22                     	;# 
  3241  1E23                     	;# 
  3242  1E24                     	;# 
  3243  1E25                     	;# 
  3244  1E26                     	;# 
  3245  1E27                     	;# 
  3246  1E28                     	;# 
  3247  1E29                     	;# 
  3248  1E2A                     	;# 
  3249  1E2B                     	;# 
  3250  1E2C                     	;# 
  3251  1E2D                     	;# 
  3252  1E2E                     	;# 
  3253  1E2F                     	;# 
  3254  1E30                     	;# 
  3255  1E31                     	;# 
  3256  1E32                     	;# 
  3257  1E33                     	;# 
  3258  1E34                     	;# 
  3259  1E35                     	;# 
  3260  1E36                     	;# 
  3261  1E37                     	;# 
  3262  1E8F                     	;# 
  3263  1E90                     	;# 
  3264  1E91                     	;# 
  3265  1E92                     	;# 
  3266  1E93                     	;# 
  3267  1E9C                     	;# 
  3268  1EA1                     	;# 
  3269  1EA2                     	;# 
  3270  1EB1                     	;# 
  3271  1EBB                     	;# 
  3272  1EBC                     	;# 
  3273  1EBD                     	;# 
  3274  1EBE                     	;# 
  3275  1EC3                     	;# 
  3276  1EC5                     	;# 
  3277  1EC6                     	;# 
  3278  1EC7                     	;# 
  3279  1EC8                     	;# 
  3280  1EC9                     	;# 
  3281  1ECA                     	;# 
  3282  1ECB                     	;# 
  3283  1ECC                     	;# 
  3284  1ECD                     	;# 
  3285  1ECE                     	;# 
  3286  1F10                     	;# 
  3287  1F11                     	;# 
  3288  1F12                     	;# 
  3289  1F13                     	;# 
  3290  1F14                     	;# 
  3291  1F15                     	;# 
  3292  1F16                     	;# 
  3293  1F17                     	;# 
  3294  1F18                     	;# 
  3295  1F19                     	;# 
  3296  1F1A                     	;# 
  3297  1F1B                     	;# 
  3298  1F1C                     	;# 
  3299  1F1D                     	;# 
  3300  1F1E                     	;# 
  3301  1F1F                     	;# 
  3302  1F20                     	;# 
  3303  1F21                     	;# 
  3304  1F22                     	;# 
  3305  1F23                     	;# 
  3306  1F24                     	;# 
  3307  1F25                     	;# 
  3308  1F26                     	;# 
  3309  1F27                     	;# 
  3310  1F28                     	;# 
  3311  1F29                     	;# 
  3312  1F2A                     	;# 
  3313  1F2B                     	;# 
  3314  1F2C                     	;# 
  3315  1F2D                     	;# 
  3316  1F2E                     	;# 
  3317  1F2F                     	;# 
  3318  1F30                     	;# 
  3319  1F31                     	;# 
  3320  1F32                     	;# 
  3321  1F38                     	;# 
  3322  1F39                     	;# 
  3323  1F3A                     	;# 
  3324  1F3B                     	;# 
  3325  1F3C                     	;# 
  3326  1F3D                     	;# 
  3327  1F3E                     	;# 
  3328  1F3F                     	;# 
  3329  1F43                     	;# 
  3330  1F44                     	;# 
  3331  1F45                     	;# 
  3332  1F46                     	;# 
  3333  1F47                     	;# 
  3334  1F48                     	;# 
  3335  1F49                     	;# 
  3336  1F4A                     	;# 
  3337  1F4E                     	;# 
  3338  1F4F                     	;# 
  3339  1F50                     	;# 
  3340  1F51                     	;# 
  3341  1F52                     	;# 
  3342  1F53                     	;# 
  3343  1F54                     	;# 
  3344  1F55                     	;# 
  3345  1F59                     	;# 
  3346  1F5A                     	;# 
  3347  1F5B                     	;# 
  3348  1F5C                     	;# 
  3349  1F5D                     	;# 
  3350  1F64                     	;# 
  3351  1F65                     	;# 
  3352  1F66                     	;# 
  3353  1F67                     	;# 
  3354  1F68                     	;# 
  3355  1F69                     	;# 
  3356  1F6A                     	;# 
  3357  1F6B                     	;# 
  3358  1FE4                     	;# 
  3359  1FE5                     	;# 
  3360  1FE6                     	;# 
  3361  1FE7                     	;# 
  3362  1FE8                     	;# 
  3363  1FE8                     	;# 
  3364  1FE9                     	;# 
  3365  1FEA                     	;# 
  3366  1FEB                     	;# 
  3367  1FED                     	;# 
  3368  1FEE                     	;# 
  3369  1FEF                     	;# 
  3370  0000                     	;# 
  3371  0001                     	;# 
  3372  0002                     	;# 
  3373  0003                     	;# 
  3374  0004                     	;# 
  3375  0005                     	;# 
  3376  0006                     	;# 
  3377  0007                     	;# 
  3378  0008                     	;# 
  3379  0009                     	;# 
  3380  000A                     	;# 
  3381  000B                     	;# 
  3382  000C                     	;# 
  3383  000D                     	;# 
  3384  000E                     	;# 
  3385  000F                     	;# 
  3386  0010                     	;# 
  3387  0012                     	;# 
  3388  0013                     	;# 
  3389  0014                     	;# 
  3390  0015                     	;# 
  3391  0016                     	;# 
  3392  0018                     	;# 
  3393  0019                     	;# 
  3394  001A                     	;# 
  3395  001B                     	;# 
  3396  001C                     	;# 
  3397  009B                     	;# 
  3398  009B                     	;# 
  3399  009C                     	;# 
  3400  009D                     	;# 
  3401  009E                     	;# 
  3402  009F                     	;# 
  3403  0119                     	;# 
  3404  0119                     	;# 
  3405  0119                     	;# 
  3406  011A                     	;# 
  3407  011A                     	;# 
  3408  011A                     	;# 
  3409  011B                     	;# 
  3410  011B                     	;# 
  3411  011B                     	;# 
  3412  011B                     	;# 
  3413  011B                     	;# 
  3414  011C                     	;# 
  3415  011C                     	;# 
  3416  011C                     	;# 
  3417  011D                     	;# 
  3418  011D                     	;# 
  3419  011D                     	;# 
  3420  011E                     	;# 
  3421  011E                     	;# 
  3422  011E                     	;# 
  3423  011F                     	;# 
  3424  011F                     	;# 
  3425  011F                     	;# 
  3426  011F                     	;# 
  3427  011F                     	;# 
  3428  018C                     	;# 
  3429  018D                     	;# 
  3430  018E                     	;# 
  3431  018F                     	;# 
  3432  0190                     	;# 
  3433  0191                     	;# 
  3434  0192                     	;# 
  3435  0196                     	;# 
  3436  0197                     	;# 
  3437  0198                     	;# 
  3438  0199                     	;# 
  3439  019A                     	;# 
  3440  019B                     	;# 
  3441  019C                     	;# 
  3442  020C                     	;# 
  3443  020C                     	;# 
  3444  020D                     	;# 
  3445  020E                     	;# 
  3446  020F                     	;# 
  3447  020F                     	;# 
  3448  0210                     	;# 
  3449  0210                     	;# 
  3450  0211                     	;# 
  3451  0211                     	;# 
  3452  028C                     	;# 
  3453  028C                     	;# 
  3454  028D                     	;# 
  3455  028D                     	;# 
  3456  028E                     	;# 
  3457  028F                     	;# 
  3458  0290                     	;# 
  3459  0291                     	;# 
  3460  030C                     	;# 
  3461  030C                     	;# 
  3462  030D                     	;# 
  3463  030E                     	;# 
  3464  030F                     	;# 
  3465  0310                     	;# 
  3466  0310                     	;# 
  3467  0311                     	;# 
  3468  0312                     	;# 
  3469  0313                     	;# 
  3470  0314                     	;# 
  3471  0315                     	;# 
  3472  0316                     	;# 
  3473  0318                     	;# 
  3474  0319                     	;# 
  3475  031A                     	;# 
  3476  031C                     	;# 
  3477  031D                     	;# 
  3478  031E                     	;# 
  3479  038C                     	;# 
  3480  038D                     	;# 
  3481  038E                     	;# 
  3482  058C                     	;# 
  3483  058C                     	;# 
  3484  058D                     	;# 
  3485  058E                     	;# 
  3486  058F                     	;# 
  3487  058F                     	;# 
  3488  0590                     	;# 
  3489  0591                     	;# 
  3490  0592                     	;# 
  3491  0593                     	;# 
  3492  059C                     	;# 
  3493  059C                     	;# 
  3494  059D                     	;# 
  3495  059D                     	;# 
  3496  059E                     	;# 
  3497  059F                     	;# 
  3498  060C                     	;# 
  3499  060D                     	;# 
  3500  060E                     	;# 
  3501  060F                     	;# 
  3502  0610                     	;# 
  3503  0611                     	;# 
  3504  0612                     	;# 
  3505  0613                     	;# 
  3506  0614                     	;# 
  3507  070C                     	;# 
  3508  070D                     	;# 
  3509  070E                     	;# 
  3510  070F                     	;# 
  3511  0710                     	;# 
  3512  0711                     	;# 
  3513  0712                     	;# 
  3514  0713                     	;# 
  3515  0716                     	;# 
  3516  0717                     	;# 
  3517  0718                     	;# 
  3518  0719                     	;# 
  3519  071A                     	;# 
  3520  071B                     	;# 
  3521  071C                     	;# 
  3522  071D                     	;# 
  3523  0796                     	;# 
  3524  0797                     	;# 
  3525  0798                     	;# 
  3526  0799                     	;# 
  3527  079A                     	;# 
  3528  079B                     	;# 
  3529  080C                     	;# 
  3530  080D                     	;# 
  3531  080E                     	;# 
  3532  080F                     	;# 
  3533  0810                     	;# 
  3534  0811                     	;# 
  3535  0812                     	;# 
  3536  0813                     	;# 
  3537  0814                     	;# 
  3538  081A                     	;# 
  3539  081A                     	;# 
  3540  081B                     	;# 
  3541  081C                     	;# 
  3542  081C                     	;# 
  3543  081D                     	;# 
  3544  081E                     	;# 
  3545  081F                     	;# 
  3546  088C                     	;# 
  3547  088D                     	;# 
  3548  088E                     	;# 
  3549  088F                     	;# 
  3550  0890                     	;# 
  3551  0891                     	;# 
  3552  0892                     	;# 
  3553  0893                     	;# 
  3554  0895                     	;# 
  3555  0896                     	;# 
  3556  090C                     	;# 
  3557  090E                     	;# 
  3558  090F                     	;# 
  3559  091F                     	;# 
  3560  098F                     	;# 
  3561  098F                     	;# 
  3562  0990                     	;# 
  3563  0991                     	;# 
  3564  0992                     	;# 
  3565  0993                     	;# 
  3566  0994                     	;# 
  3567  0995                     	;# 
  3568  0996                     	;# 
  3569  0997                     	;# 
  3570  0A19                     	;# 
  3571  0A19                     	;# 
  3572  0A1A                     	;# 
  3573  0A1A                     	;# 
  3574  0A1B                     	;# 
  3575  0A1B                     	;# 
  3576  0A1B                     	;# 
  3577  0A1C                     	;# 
  3578  0A1C                     	;# 
  3579  0A1D                     	;# 
  3580  0A1D                     	;# 
  3581  0A1E                     	;# 
  3582  0A1E                     	;# 
  3583  0A1F                     	;# 
  3584  0A1F                     	;# 
  3585  0A1F                     	;# 
  3586  1E0F                     	;# 
  3587  1E10                     	;# 
  3588  1E11                     	;# 
  3589  1E12                     	;# 
  3590  1E13                     	;# 
  3591  1E14                     	;# 
  3592  1E15                     	;# 
  3593  1E16                     	;# 
  3594  1E17                     	;# 
  3595  1E18                     	;# 
  3596  1E19                     	;# 
  3597  1E1A                     	;# 
  3598  1E1B                     	;# 
  3599  1E1C                     	;# 
  3600  1E1D                     	;# 
  3601  1E1E                     	;# 
  3602  1E1F                     	;# 
  3603  1E20                     	;# 
  3604  1E21                     	;# 
  3605  1E22                     	;# 
  3606  1E23                     	;# 
  3607  1E24                     	;# 
  3608  1E25                     	;# 
  3609  1E26                     	;# 
  3610  1E27                     	;# 
  3611  1E28                     	;# 
  3612  1E29                     	;# 
  3613  1E2A                     	;# 
  3614  1E2B                     	;# 
  3615  1E2C                     	;# 
  3616  1E2D                     	;# 
  3617  1E2E                     	;# 
  3618  1E2F                     	;# 
  3619  1E30                     	;# 
  3620  1E31                     	;# 
  3621  1E32                     	;# 
  3622  1E33                     	;# 
  3623  1E34                     	;# 
  3624  1E35                     	;# 
  3625  1E36                     	;# 
  3626  1E37                     	;# 
  3627  1E8F                     	;# 
  3628  1E90                     	;# 
  3629  1E91                     	;# 
  3630  1E92                     	;# 
  3631  1E93                     	;# 
  3632  1E9C                     	;# 
  3633  1EA1                     	;# 
  3634  1EA2                     	;# 
  3635  1EB1                     	;# 
  3636  1EBB                     	;# 
  3637  1EBC                     	;# 
  3638  1EBD                     	;# 
  3639  1EBE                     	;# 
  3640  1EC3                     	;# 
  3641  1EC5                     	;# 
  3642  1EC6                     	;# 
  3643  1EC7                     	;# 
  3644  1EC8                     	;# 
  3645  1EC9                     	;# 
  3646  1ECA                     	;# 
  3647  1ECB                     	;# 
  3648  1ECC                     	;# 
  3649  1ECD                     	;# 
  3650  1ECE                     	;# 
  3651  1F10                     	;# 
  3652  1F11                     	;# 
  3653  1F12                     	;# 
  3654  1F13                     	;# 
  3655  1F14                     	;# 
  3656  1F15                     	;# 
  3657  1F16                     	;# 
  3658  1F17                     	;# 
  3659  1F18                     	;# 
  3660  1F19                     	;# 
  3661  1F1A                     	;# 
  3662  1F1B                     	;# 
  3663  1F1C                     	;# 
  3664  1F1D                     	;# 
  3665  1F1E                     	;# 
  3666  1F1F                     	;# 
  3667  1F20                     	;# 
  3668  1F21                     	;# 
  3669  1F22                     	;# 
  3670  1F23                     	;# 
  3671  1F24                     	;# 
  3672  1F25                     	;# 
  3673  1F26                     	;# 
  3674  1F27                     	;# 
  3675  1F28                     	;# 
  3676  1F29                     	;# 
  3677  1F2A                     	;# 
  3678  1F2B                     	;# 
  3679  1F2C                     	;# 
  3680  1F2D                     	;# 
  3681  1F2E                     	;# 
  3682  1F2F                     	;# 
  3683  1F30                     	;# 
  3684  1F31                     	;# 
  3685  1F32                     	;# 
  3686  1F38                     	;# 
  3687  1F39                     	;# 
  3688  1F3A                     	;# 
  3689  1F3B                     	;# 
  3690  1F3C                     	;# 
  3691  1F3D                     	;# 
  3692  1F3E                     	;# 
  3693  1F3F                     	;# 
  3694  1F43                     	;# 
  3695  1F44                     	;# 
  3696  1F45                     	;# 
  3697  1F46                     	;# 
  3698  1F47                     	;# 
  3699  1F48                     	;# 
  3700  1F49                     	;# 
  3701  1F4A                     	;# 
  3702  1F4E                     	;# 
  3703  1F4F                     	;# 
  3704  1F50                     	;# 
  3705  1F51                     	;# 
  3706  1F52                     	;# 
  3707  1F53                     	;# 
  3708  1F54                     	;# 
  3709  1F55                     	;# 
  3710  1F59                     	;# 
  3711  1F5A                     	;# 
  3712  1F5B                     	;# 
  3713  1F5C                     	;# 
  3714  1F5D                     	;# 
  3715  1F64                     	;# 
  3716  1F65                     	;# 
  3717  1F66                     	;# 
  3718  1F67                     	;# 
  3719  1F68                     	;# 
  3720  1F69                     	;# 
  3721  1F6A                     	;# 
  3722  1F6B                     	;# 
  3723  1FE4                     	;# 
  3724  1FE5                     	;# 
  3725  1FE6                     	;# 
  3726  1FE7                     	;# 
  3727  1FE8                     	;# 
  3728  1FE8                     	;# 
  3729  1FE9                     	;# 
  3730  1FEA                     	;# 
  3731  1FEB                     	;# 
  3732  1FED                     	;# 
  3733  1FEE                     	;# 
  3734  1FEF                     	;# 
  3735  0000                     	;# 
  3736  0001                     	;# 
  3737  0002                     	;# 
  3738  0003                     	;# 
  3739  0004                     	;# 
  3740  0005                     	;# 
  3741  0006                     	;# 
  3742  0007                     	;# 
  3743  0008                     	;# 
  3744  0009                     	;# 
  3745  000A                     	;# 
  3746  000B                     	;# 
  3747  000C                     	;# 
  3748  000D                     	;# 
  3749  000E                     	;# 
  3750  000F                     	;# 
  3751  0010                     	;# 
  3752  0012                     	;# 
  3753  0013                     	;# 
  3754  0014                     	;# 
  3755  0015                     	;# 
  3756  0016                     	;# 
  3757  0018                     	;# 
  3758  0019                     	;# 
  3759  001A                     	;# 
  3760  001B                     	;# 
  3761  001C                     	;# 
  3762  009B                     	;# 
  3763  009B                     	;# 
  3764  009C                     	;# 
  3765  009D                     	;# 
  3766  009E                     	;# 
  3767  009F                     	;# 
  3768  0119                     	;# 
  3769  0119                     	;# 
  3770  0119                     	;# 
  3771  011A                     	;# 
  3772  011A                     	;# 
  3773  011A                     	;# 
  3774  011B                     	;# 
  3775  011B                     	;# 
  3776  011B                     	;# 
  3777  011B                     	;# 
  3778  011B                     	;# 
  3779  011C                     	;# 
  3780  011C                     	;# 
  3781  011C                     	;# 
  3782  011D                     	;# 
  3783  011D                     	;# 
  3784  011D                     	;# 
  3785  011E                     	;# 
  3786  011E                     	;# 
  3787  011E                     	;# 
  3788  011F                     	;# 
  3789  011F                     	;# 
  3790  011F                     	;# 
  3791  011F                     	;# 
  3792  011F                     	;# 
  3793  018C                     	;# 
  3794  018D                     	;# 
  3795  018E                     	;# 
  3796  018F                     	;# 
  3797  0190                     	;# 
  3798  0191                     	;# 
  3799  0192                     	;# 
  3800  0196                     	;# 
  3801  0197                     	;# 
  3802  0198                     	;# 
  3803  0199                     	;# 
  3804  019A                     	;# 
  3805  019B                     	;# 
  3806  019C                     	;# 
  3807  020C                     	;# 
  3808  020C                     	;# 
  3809  020D                     	;# 
  3810  020E                     	;# 
  3811  020F                     	;# 
  3812  020F                     	;# 
  3813  0210                     	;# 
  3814  0210                     	;# 
  3815  0211                     	;# 
  3816  0211                     	;# 
  3817  028C                     	;# 
  3818  028C                     	;# 
  3819  028D                     	;# 
  3820  028D                     	;# 
  3821  028E                     	;# 
  3822  028F                     	;# 
  3823  0290                     	;# 
  3824  0291                     	;# 
  3825  030C                     	;# 
  3826  030C                     	;# 
  3827  030D                     	;# 
  3828  030E                     	;# 
  3829  030F                     	;# 
  3830  0310                     	;# 
  3831  0310                     	;# 
  3832  0311                     	;# 
  3833  0312                     	;# 
  3834  0313                     	;# 
  3835  0314                     	;# 
  3836  0315                     	;# 
  3837  0316                     	;# 
  3838  0318                     	;# 
  3839  0319                     	;# 
  3840  031A                     	;# 
  3841  031C                     	;# 
  3842  031D                     	;# 
  3843  031E                     	;# 
  3844  038C                     	;# 
  3845  038D                     	;# 
  3846  038E                     	;# 
  3847  058C                     	;# 
  3848  058C                     	;# 
  3849  058D                     	;# 
  3850  058E                     	;# 
  3851  058F                     	;# 
  3852  058F                     	;# 
  3853  0590                     	;# 
  3854  0591                     	;# 
  3855  0592                     	;# 
  3856  0593                     	;# 
  3857  059C                     	;# 
  3858  059C                     	;# 
  3859  059D                     	;# 
  3860  059D                     	;# 
  3861  059E                     	;# 
  3862  059F                     	;# 
  3863  060C                     	;# 
  3864  060D                     	;# 
  3865  060E                     	;# 
  3866  060F                     	;# 
  3867  0610                     	;# 
  3868  0611                     	;# 
  3869  0612                     	;# 
  3870  0613                     	;# 
  3871  0614                     	;# 
  3872  070C                     	;# 
  3873  070D                     	;# 
  3874  070E                     	;# 
  3875  070F                     	;# 
  3876  0710                     	;# 
  3877  0711                     	;# 
  3878  0712                     	;# 
  3879  0713                     	;# 
  3880  0716                     	;# 
  3881  0717                     	;# 
  3882  0718                     	;# 
  3883  0719                     	;# 
  3884  071A                     	;# 
  3885  071B                     	;# 
  3886  071C                     	;# 
  3887  071D                     	;# 
  3888  0796                     	;# 
  3889  0797                     	;# 
  3890  0798                     	;# 
  3891  0799                     	;# 
  3892  079A                     	;# 
  3893  079B                     	;# 
  3894  080C                     	;# 
  3895  080D                     	;# 
  3896  080E                     	;# 
  3897  080F                     	;# 
  3898  0810                     	;# 
  3899  0811                     	;# 
  3900  0812                     	;# 
  3901  0813                     	;# 
  3902  0814                     	;# 
  3903  081A                     	;# 
  3904  081A                     	;# 
  3905  081B                     	;# 
  3906  081C                     	;# 
  3907  081C                     	;# 
  3908  081D                     	;# 
  3909  081E                     	;# 
  3910  081F                     	;# 
  3911  088C                     	;# 
  3912  088D                     	;# 
  3913  088E                     	;# 
  3914  088F                     	;# 
  3915  0890                     	;# 
  3916  0891                     	;# 
  3917  0892                     	;# 
  3918  0893                     	;# 
  3919  0895                     	;# 
  3920  0896                     	;# 
  3921  090C                     	;# 
  3922  090E                     	;# 
  3923  090F                     	;# 
  3924  091F                     	;# 
  3925  098F                     	;# 
  3926  098F                     	;# 
  3927  0990                     	;# 
  3928  0991                     	;# 
  3929  0992                     	;# 
  3930  0993                     	;# 
  3931  0994                     	;# 
  3932  0995                     	;# 
  3933  0996                     	;# 
  3934  0997                     	;# 
  3935  0A19                     	;# 
  3936  0A19                     	;# 
  3937  0A1A                     	;# 
  3938  0A1A                     	;# 
  3939  0A1B                     	;# 
  3940  0A1B                     	;# 
  3941  0A1B                     	;# 
  3942  0A1C                     	;# 
  3943  0A1C                     	;# 
  3944  0A1D                     	;# 
  3945  0A1D                     	;# 
  3946  0A1E                     	;# 
  3947  0A1E                     	;# 
  3948  0A1F                     	;# 
  3949  0A1F                     	;# 
  3950  0A1F                     	;# 
  3951  1E0F                     	;# 
  3952  1E10                     	;# 
  3953  1E11                     	;# 
  3954  1E12                     	;# 
  3955  1E13                     	;# 
  3956  1E14                     	;# 
  3957  1E15                     	;# 
  3958  1E16                     	;# 
  3959  1E17                     	;# 
  3960  1E18                     	;# 
  3961  1E19                     	;# 
  3962  1E1A                     	;# 
  3963  1E1B                     	;# 
  3964  1E1C                     	;# 
  3965  1E1D                     	;# 
  3966  1E1E                     	;# 
  3967  1E1F                     	;# 
  3968  1E20                     	;# 
  3969  1E21                     	;# 
  3970  1E22                     	;# 
  3971  1E23                     	;# 
  3972  1E24                     	;# 
  3973  1E25                     	;# 
  3974  1E26                     	;# 
  3975  1E27                     	;# 
  3976  1E28                     	;# 
  3977  1E29                     	;# 
  3978  1E2A                     	;# 
  3979  1E2B                     	;# 
  3980  1E2C                     	;# 
  3981  1E2D                     	;# 
  3982  1E2E                     	;# 
  3983  1E2F                     	;# 
  3984  1E30                     	;# 
  3985  1E31                     	;# 
  3986  1E32                     	;# 
  3987  1E33                     	;# 
  3988  1E34                     	;# 
  3989  1E35                     	;# 
  3990  1E36                     	;# 
  3991  1E37                     	;# 
  3992  1E8F                     	;# 
  3993  1E90                     	;# 
  3994  1E91                     	;# 
  3995  1E92                     	;# 
  3996  1E93                     	;# 
  3997  1E9C                     	;# 
  3998  1EA1                     	;# 
  3999  1EA2                     	;# 
  4000  1EB1                     	;# 
  4001  1EBB                     	;# 
  4002  1EBC                     	;# 
  4003  1EBD                     	;# 
  4004  1EBE                     	;# 
  4005  1EC3                     	;# 
  4006  1EC5                     	;# 
  4007  1EC6                     	;# 
  4008  1EC7                     	;# 
  4009  1EC8                     	;# 
  4010  1EC9                     	;# 
  4011  1ECA                     	;# 
  4012  1ECB                     	;# 
  4013  1ECC                     	;# 
  4014  1ECD                     	;# 
  4015  1ECE                     	;# 
  4016  1F10                     	;# 
  4017  1F11                     	;# 
  4018  1F12                     	;# 
  4019  1F13                     	;# 
  4020  1F14                     	;# 
  4021  1F15                     	;# 
  4022  1F16                     	;# 
  4023  1F17                     	;# 
  4024  1F18                     	;# 
  4025  1F19                     	;# 
  4026  1F1A                     	;# 
  4027  1F1B                     	;# 
  4028  1F1C                     	;# 
  4029  1F1D                     	;# 
  4030  1F1E                     	;# 
  4031  1F1F                     	;# 
  4032  1F20                     	;# 
  4033  1F21                     	;# 
  4034  1F22                     	;# 
  4035  1F23                     	;# 
  4036  1F24                     	;# 
  4037  1F25                     	;# 
  4038  1F26                     	;# 
  4039  1F27                     	;# 
  4040  1F28                     	;# 
  4041  1F29                     	;# 
  4042  1F2A                     	;# 
  4043  1F2B                     	;# 
  4044  1F2C                     	;# 
  4045  1F2D                     	;# 
  4046  1F2E                     	;# 
  4047  1F2F                     	;# 
  4048  1F30                     	;# 
  4049  1F31                     	;# 
  4050  1F32                     	;# 
  4051  1F38                     	;# 
  4052  1F39                     	;# 
  4053  1F3A                     	;# 
  4054  1F3B                     	;# 
  4055  1F3C                     	;# 
  4056  1F3D                     	;# 
  4057  1F3E                     	;# 
  4058  1F3F                     	;# 
  4059  1F43                     	;# 
  4060  1F44                     	;# 
  4061  1F45                     	;# 
  4062  1F46                     	;# 
  4063  1F47                     	;# 
  4064  1F48                     	;# 
  4065  1F49                     	;# 
  4066  1F4A                     	;# 
  4067  1F4E                     	;# 
  4068  1F4F                     	;# 
  4069  1F50                     	;# 
  4070  1F51                     	;# 
  4071  1F52                     	;# 
  4072  1F53                     	;# 
  4073  1F54                     	;# 
  4074  1F55                     	;# 
  4075  1F59                     	;# 
  4076  1F5A                     	;# 
  4077  1F5B                     	;# 
  4078  1F5C                     	;# 
  4079  1F5D                     	;# 
  4080  1F64                     	;# 
  4081  1F65                     	;# 
  4082  1F66                     	;# 
  4083  1F67                     	;# 
  4084  1F68                     	;# 
  4085  1F69                     	;# 
  4086  1F6A                     	;# 
  4087  1F6B                     	;# 
  4088  1FE4                     	;# 
  4089  1FE5                     	;# 
  4090  1FE6                     	;# 
  4091  1FE7                     	;# 
  4092  1FE8                     	;# 
  4093  1FE8                     	;# 
  4094  1FE9                     	;# 
  4095  1FEA                     	;# 
  4096  1FEB                     	;# 
  4097  1FED                     	;# 
  4098  1FEE                     	;# 
  4099  1FEF                     	;# 
  4100  0000                     	;# 
  4101  0001                     	;# 
  4102  0002                     	;# 
  4103  0003                     	;# 
  4104  0004                     	;# 
  4105  0005                     	;# 
  4106  0006                     	;# 
  4107  0007                     	;# 
  4108  0008                     	;# 
  4109  0009                     	;# 
  4110  000A                     	;# 
  4111  000B                     	;# 
  4112  000C                     	;# 
  4113  000D                     	;# 
  4114  000E                     	;# 
  4115  000F                     	;# 
  4116  0010                     	;# 
  4117  0012                     	;# 
  4118  0013                     	;# 
  4119  0014                     	;# 
  4120  0015                     	;# 
  4121  0016                     	;# 
  4122  0018                     	;# 
  4123  0019                     	;# 
  4124  001A                     	;# 
  4125  001B                     	;# 
  4126  001C                     	;# 
  4127  009B                     	;# 
  4128  009B                     	;# 
  4129  009C                     	;# 
  4130  009D                     	;# 
  4131  009E                     	;# 
  4132  009F                     	;# 
  4133  0119                     	;# 
  4134  0119                     	;# 
  4135  0119                     	;# 
  4136  011A                     	;# 
  4137  011A                     	;# 
  4138  011A                     	;# 
  4139  011B                     	;# 
  4140  011B                     	;# 
  4141  011B                     	;# 
  4142  011B                     	;# 
  4143  011B                     	;# 
  4144  011C                     	;# 
  4145  011C                     	;# 
  4146  011C                     	;# 
  4147  011D                     	;# 
  4148  011D                     	;# 
  4149  011D                     	;# 
  4150  011E                     	;# 
  4151  011E                     	;# 
  4152  011E                     	;# 
  4153  011F                     	;# 
  4154  011F                     	;# 
  4155  011F                     	;# 
  4156  011F                     	;# 
  4157  011F                     	;# 
  4158  018C                     	;# 
  4159  018D                     	;# 
  4160  018E                     	;# 
  4161  018F                     	;# 
  4162  0190                     	;# 
  4163  0191                     	;# 
  4164  0192                     	;# 
  4165  0196                     	;# 
  4166  0197                     	;# 
  4167  0198                     	;# 
  4168  0199                     	;# 
  4169  019A                     	;# 
  4170  019B                     	;# 
  4171  019C                     	;# 
  4172  020C                     	;# 
  4173  020C                     	;# 
  4174  020D                     	;# 
  4175  020E                     	;# 
  4176  020F                     	;# 
  4177  020F                     	;# 
  4178  0210                     	;# 
  4179  0210                     	;# 
  4180  0211                     	;# 
  4181  0211                     	;# 
  4182  028C                     	;# 
  4183  028C                     	;# 
  4184  028D                     	;# 
  4185  028D                     	;# 
  4186  028E                     	;# 
  4187  028F                     	;# 
  4188  0290                     	;# 
  4189  0291                     	;# 
  4190  030C                     	;# 
  4191  030C                     	;# 
  4192  030D                     	;# 
  4193  030E                     	;# 
  4194  030F                     	;# 
  4195  0310                     	;# 
  4196  0310                     	;# 
  4197  0311                     	;# 
  4198  0312                     	;# 
  4199  0313                     	;# 
  4200  0314                     	;# 
  4201  0315                     	;# 
  4202  0316                     	;# 
  4203  0318                     	;# 
  4204  0319                     	;# 
  4205  031A                     	;# 
  4206  031C                     	;# 
  4207  031D                     	;# 
  4208  031E                     	;# 
  4209  038C                     	;# 
  4210  038D                     	;# 
  4211  038E                     	;# 
  4212  058C                     	;# 
  4213  058C                     	;# 
  4214  058D                     	;# 
  4215  058E                     	;# 
  4216  058F                     	;# 
  4217  058F                     	;# 
  4218  0590                     	;# 
  4219  0591                     	;# 
  4220  0592                     	;# 
  4221  0593                     	;# 
  4222  059C                     	;# 
  4223  059C                     	;# 
  4224  059D                     	;# 
  4225  059D                     	;# 
  4226  059E                     	;# 
  4227  059F                     	;# 
  4228  060C                     	;# 
  4229  060D                     	;# 
  4230  060E                     	;# 
  4231  060F                     	;# 
  4232  0610                     	;# 
  4233  0611                     	;# 
  4234  0612                     	;# 
  4235  0613                     	;# 
  4236  0614                     	;# 
  4237  070C                     	;# 
  4238  070D                     	;# 
  4239  070E                     	;# 
  4240  070F                     	;# 
  4241  0710                     	;# 
  4242  0711                     	;# 
  4243  0712                     	;# 
  4244  0713                     	;# 
  4245  0716                     	;# 
  4246  0717                     	;# 
  4247  0718                     	;# 
  4248  0719                     	;# 
  4249  071A                     	;# 
  4250  071B                     	;# 
  4251  071C                     	;# 
  4252  071D                     	;# 
  4253  0796                     	;# 
  4254  0797                     	;# 
  4255  0798                     	;# 
  4256  0799                     	;# 
  4257  079A                     	;# 
  4258  079B                     	;# 
  4259  080C                     	;# 
  4260  080D                     	;# 
  4261  080E                     	;# 
  4262  080F                     	;# 
  4263  0810                     	;# 
  4264  0811                     	;# 
  4265  0812                     	;# 
  4266  0813                     	;# 
  4267  0814                     	;# 
  4268  081A                     	;# 
  4269  081A                     	;# 
  4270  081B                     	;# 
  4271  081C                     	;# 
  4272  081C                     	;# 
  4273  081D                     	;# 
  4274  081E                     	;# 
  4275  081F                     	;# 
  4276  088C                     	;# 
  4277  088D                     	;# 
  4278  088E                     	;# 
  4279  088F                     	;# 
  4280  0890                     	;# 
  4281  0891                     	;# 
  4282  0892                     	;# 
  4283  0893                     	;# 
  4284  0895                     	;# 
  4285  0896                     	;# 
  4286  090C                     	;# 
  4287  090E                     	;# 
  4288  090F                     	;# 
  4289  091F                     	;# 
  4290  098F                     	;# 
  4291  098F                     	;# 
  4292  0990                     	;# 
  4293  0991                     	;# 
  4294  0992                     	;# 
  4295  0993                     	;# 
  4296  0994                     	;# 
  4297  0995                     	;# 
  4298  0996                     	;# 
  4299  0997                     	;# 
  4300  0A19                     	;# 
  4301  0A19                     	;# 
  4302  0A1A                     	;# 
  4303  0A1A                     	;# 
  4304  0A1B                     	;# 
  4305  0A1B                     	;# 
  4306  0A1B                     	;# 
  4307  0A1C                     	;# 
  4308  0A1C                     	;# 
  4309  0A1D                     	;# 
  4310  0A1D                     	;# 
  4311  0A1E                     	;# 
  4312  0A1E                     	;# 
  4313  0A1F                     	;# 
  4314  0A1F                     	;# 
  4315  0A1F                     	;# 
  4316  1E0F                     	;# 
  4317  1E10                     	;# 
  4318  1E11                     	;# 
  4319  1E12                     	;# 
  4320  1E13                     	;# 
  4321  1E14                     	;# 
  4322  1E15                     	;# 
  4323  1E16                     	;# 
  4324  1E17                     	;# 
  4325  1E18                     	;# 
  4326  1E19                     	;# 
  4327  1E1A                     	;# 
  4328  1E1B                     	;# 
  4329  1E1C                     	;# 
  4330  1E1D                     	;# 
  4331  1E1E                     	;# 
  4332  1E1F                     	;# 
  4333  1E20                     	;# 
  4334  1E21                     	;# 
  4335  1E22                     	;# 
  4336  1E23                     	;# 
  4337  1E24                     	;# 
  4338  1E25                     	;# 
  4339  1E26                     	;# 
  4340  1E27                     	;# 
  4341  1E28                     	;# 
  4342  1E29                     	;# 
  4343  1E2A                     	;# 
  4344  1E2B                     	;# 
  4345  1E2C                     	;# 
  4346  1E2D                     	;# 
  4347  1E2E                     	;# 
  4348  1E2F                     	;# 
  4349  1E30                     	;# 
  4350  1E31                     	;# 
  4351  1E32                     	;# 
  4352  1E33                     	;# 
  4353  1E34                     	;# 
  4354  1E35                     	;# 
  4355  1E36                     	;# 
  4356  1E37                     	;# 
  4357  1E8F                     	;# 
  4358  1E90                     	;# 
  4359  1E91                     	;# 
  4360  1E92                     	;# 
  4361  1E93                     	;# 
  4362  1E9C                     	;# 
  4363  1EA1                     	;# 
  4364  1EA2                     	;# 
  4365  1EB1                     	;# 
  4366  1EBB                     	;# 
  4367  1EBC                     	;# 
  4368  1EBD                     	;# 
  4369  1EBE                     	;# 
  4370  1EC3                     	;# 
  4371  1EC5                     	;# 
  4372  1EC6                     	;# 
  4373  1EC7                     	;# 
  4374  1EC8                     	;# 
  4375  1EC9                     	;# 
  4376  1ECA                     	;# 
  4377  1ECB                     	;# 
  4378  1ECC                     	;# 
  4379  1ECD                     	;# 
  4380  1ECE                     	;# 
  4381  1F10                     	;# 
  4382  1F11                     	;# 
  4383  1F12                     	;# 
  4384  1F13                     	;# 
  4385  1F14                     	;# 
  4386  1F15                     	;# 
  4387  1F16                     	;# 
  4388  1F17                     	;# 
  4389  1F18                     	;# 
  4390  1F19                     	;# 
  4391  1F1A                     	;# 
  4392  1F1B                     	;# 
  4393  1F1C                     	;# 
  4394  1F1D                     	;# 
  4395  1F1E                     	;# 
  4396  1F1F                     	;# 
  4397  1F20                     	;# 
  4398  1F21                     	;# 
  4399  1F22                     	;# 
  4400  1F23                     	;# 
  4401  1F24                     	;# 
  4402  1F25                     	;# 
  4403  1F26                     	;# 
  4404  1F27                     	;# 
  4405  1F28                     	;# 
  4406  1F29                     	;# 
  4407  1F2A                     	;# 
  4408  1F2B                     	;# 
  4409  1F2C                     	;# 
  4410  1F2D                     	;# 
  4411  1F2E                     	;# 
  4412  1F2F                     	;# 
  4413  1F30                     	;# 
  4414  1F31                     	;# 
  4415  1F32                     	;# 
  4416  1F38                     	;# 
  4417  1F39                     	;# 
  4418  1F3A                     	;# 
  4419  1F3B                     	;# 
  4420  1F3C                     	;# 
  4421  1F3D                     	;# 
  4422  1F3E                     	;# 
  4423  1F3F                     	;# 
  4424  1F43                     	;# 
  4425  1F44                     	;# 
  4426  1F45                     	;# 
  4427  1F46                     	;# 
  4428  1F47                     	;# 
  4429  1F48                     	;# 
  4430  1F49                     	;# 
  4431  1F4A                     	;# 
  4432  1F4E                     	;# 
  4433  1F4F                     	;# 
  4434  1F50                     	;# 
  4435  1F51                     	;# 
  4436  1F52                     	;# 
  4437  1F53                     	;# 
  4438  1F54                     	;# 
  4439  1F55                     	;# 
  4440  1F59                     	;# 
  4441  1F5A                     	;# 
  4442  1F5B                     	;# 
  4443  1F5C                     	;# 
  4444  1F5D                     	;# 
  4445  1F64                     	;# 
  4446  1F65                     	;# 
  4447  1F66                     	;# 
  4448  1F67                     	;# 
  4449  1F68                     	;# 
  4450  1F69                     	;# 
  4451  1F6A                     	;# 
  4452  1F6B                     	;# 
  4453  1FE4                     	;# 
  4454  1FE5                     	;# 
  4455  1FE6                     	;# 
  4456  1FE7                     	;# 
  4457  1FE8                     	;# 
  4458  1FE8                     	;# 
  4459  1FE9                     	;# 
  4460  1FEA                     	;# 
  4461  1FEB                     	;# 
  4462  1FED                     	;# 
  4463  1FEE                     	;# 
  4464  1FEF                     	;# 
  4465  0000                     	;# 
  4466  0001                     	;# 
  4467  0002                     	;# 
  4468  0003                     	;# 
  4469  0004                     	;# 
  4470  0005                     	;# 
  4471  0006                     	;# 
  4472  0007                     	;# 
  4473  0008                     	;# 
  4474  0009                     	;# 
  4475  000A                     	;# 
  4476  000B                     	;# 
  4477  000C                     	;# 
  4478  000D                     	;# 
  4479  000E                     	;# 
  4480  000F                     	;# 
  4481  0010                     	;# 
  4482  0012                     	;# 
  4483  0013                     	;# 
  4484  0014                     	;# 
  4485  0015                     	;# 
  4486  0016                     	;# 
  4487  0018                     	;# 
  4488  0019                     	;# 
  4489  001A                     	;# 
  4490  001B                     	;# 
  4491  001C                     	;# 
  4492  009B                     	;# 
  4493  009B                     	;# 
  4494  009C                     	;# 
  4495  009D                     	;# 
  4496  009E                     	;# 
  4497  009F                     	;# 
  4498  0119                     	;# 
  4499  0119                     	;# 
  4500  0119                     	;# 
  4501  011A                     	;# 
  4502  011A                     	;# 
  4503  011A                     	;# 
  4504  011B                     	;# 
  4505  011B                     	;# 
  4506  011B                     	;# 
  4507  011B                     	;# 
  4508  011B                     	;# 
  4509  011C                     	;# 
  4510  011C                     	;# 
  4511  011C                     	;# 
  4512  011D                     	;# 
  4513  011D                     	;# 
  4514  011D                     	;# 
  4515  011E                     	;# 
  4516  011E                     	;# 
  4517  011E                     	;# 
  4518  011F                     	;# 
  4519  011F                     	;# 
  4520  011F                     	;# 
  4521  011F                     	;# 
  4522  011F                     	;# 
  4523  018C                     	;# 
  4524  018D                     	;# 
  4525  018E                     	;# 
  4526  018F                     	;# 
  4527  0190                     	;# 
  4528  0191                     	;# 
  4529  0192                     	;# 
  4530  0196                     	;# 
  4531  0197                     	;# 
  4532  0198                     	;# 
  4533  0199                     	;# 
  4534  019A                     	;# 
  4535  019B                     	;# 
  4536  019C                     	;# 
  4537  020C                     	;# 
  4538  020C                     	;# 
  4539  020D                     	;# 
  4540  020E                     	;# 
  4541  020F                     	;# 
  4542  020F                     	;# 
  4543  0210                     	;# 
  4544  0210                     	;# 
  4545  0211                     	;# 
  4546  0211                     	;# 
  4547  028C                     	;# 
  4548  028C                     	;# 
  4549  028D                     	;# 
  4550  028D                     	;# 
  4551  028E                     	;# 
  4552  028F                     	;# 
  4553  0290                     	;# 
  4554  0291                     	;# 
  4555  030C                     	;# 
  4556  030C                     	;# 
  4557  030D                     	;# 
  4558  030E                     	;# 
  4559  030F                     	;# 
  4560  0310                     	;# 
  4561  0310                     	;# 
  4562  0311                     	;# 
  4563  0312                     	;# 
  4564  0313                     	;# 
  4565  0314                     	;# 
  4566  0315                     	;# 
  4567  0316                     	;# 
  4568  0318                     	;# 
  4569  0319                     	;# 
  4570  031A                     	;# 
  4571  031C                     	;# 
  4572  031D                     	;# 
  4573  031E                     	;# 
  4574  038C                     	;# 
  4575  038D                     	;# 
  4576  038E                     	;# 
  4577  058C                     	;# 
  4578  058C                     	;# 
  4579  058D                     	;# 
  4580  058E                     	;# 
  4581  058F                     	;# 
  4582  058F                     	;# 
  4583  0590                     	;# 
  4584  0591                     	;# 
  4585  0592                     	;# 
  4586  0593                     	;# 
  4587  059C                     	;# 
  4588  059C                     	;# 
  4589  059D                     	;# 
  4590  059D                     	;# 
  4591  059E                     	;# 
  4592  059F                     	;# 
  4593  060C                     	;# 
  4594  060D                     	;# 
  4595  060E                     	;# 
  4596  060F                     	;# 
  4597  0610                     	;# 
  4598  0611                     	;# 
  4599  0612                     	;# 
  4600  0613                     	;# 
  4601  0614                     	;# 
  4602  070C                     	;# 
  4603  070D                     	;# 
  4604  070E                     	;# 
  4605  070F                     	;# 
  4606  0710                     	;# 
  4607  0711                     	;# 
  4608  0712                     	;# 
  4609  0713                     	;# 
  4610  0716                     	;# 
  4611  0717                     	;# 
  4612  0718                     	;# 
  4613  0719                     	;# 
  4614  071A                     	;# 
  4615  071B                     	;# 
  4616  071C                     	;# 
  4617  071D                     	;# 
  4618  0796                     	;# 
  4619  0797                     	;# 
  4620  0798                     	;# 
  4621  0799                     	;# 
  4622  079A                     	;# 
  4623  079B                     	;# 
  4624  080C                     	;# 
  4625  080D                     	;# 
  4626  080E                     	;# 
  4627  080F                     	;# 
  4628  0810                     	;# 
  4629  0811                     	;# 
  4630  0812                     	;# 
  4631  0813                     	;# 
  4632  0814                     	;# 
  4633  081A                     	;# 
  4634  081A                     	;# 
  4635  081B                     	;# 
  4636  081C                     	;# 
  4637  081C                     	;# 
  4638  081D                     	;# 
  4639  081E                     	;# 
  4640  081F                     	;# 
  4641  088C                     	;# 
  4642  088D                     	;# 
  4643  088E                     	;# 
  4644  088F                     	;# 
  4645  0890                     	;# 
  4646  0891                     	;# 
  4647  0892                     	;# 
  4648  0893                     	;# 
  4649  0895                     	;# 
  4650  0896                     	;# 
  4651  090C                     	;# 
  4652  090E                     	;# 
  4653  090F                     	;# 
  4654  091F                     	;# 
  4655  098F                     	;# 
  4656  098F                     	;# 
  4657  0990                     	;# 
  4658  0991                     	;# 
  4659  0992                     	;# 
  4660  0993                     	;# 
  4661  0994                     	;# 
  4662  0995                     	;# 
  4663  0996                     	;# 
  4664  0997                     	;# 
  4665  0A19                     	;# 
  4666  0A19                     	;# 
  4667  0A1A                     	;# 
  4668  0A1A                     	;# 
  4669  0A1B                     	;# 
  4670  0A1B                     	;# 
  4671  0A1B                     	;# 
  4672  0A1C                     	;# 
  4673  0A1C                     	;# 
  4674  0A1D                     	;# 
  4675  0A1D                     	;# 
  4676  0A1E                     	;# 
  4677  0A1E                     	;# 
  4678  0A1F                     	;# 
  4679  0A1F                     	;# 
  4680  0A1F                     	;# 
  4681  1E0F                     	;# 
  4682  1E10                     	;# 
  4683  1E11                     	;# 
  4684  1E12                     	;# 
  4685  1E13                     	;# 
  4686  1E14                     	;# 
  4687  1E15                     	;# 
  4688  1E16                     	;# 
  4689  1E17                     	;# 
  4690  1E18                     	;# 
  4691  1E19                     	;# 
  4692  1E1A                     	;# 
  4693  1E1B                     	;# 
  4694  1E1C                     	;# 
  4695  1E1D                     	;# 
  4696  1E1E                     	;# 
  4697  1E1F                     	;# 
  4698  1E20                     	;# 
  4699  1E21                     	;# 
  4700  1E22                     	;# 
  4701  1E23                     	;# 
  4702  1E24                     	;# 
  4703  1E25                     	;# 
  4704  1E26                     	;# 
  4705  1E27                     	;# 
  4706  1E28                     	;# 
  4707  1E29                     	;# 
  4708  1E2A                     	;# 
  4709  1E2B                     	;# 
  4710  1E2C                     	;# 
  4711  1E2D                     	;# 
  4712  1E2E                     	;# 
  4713  1E2F                     	;# 
  4714  1E30                     	;# 
  4715  1E31                     	;# 
  4716  1E32                     	;# 
  4717  1E33                     	;# 
  4718  1E34                     	;# 
  4719  1E35                     	;# 
  4720  1E36                     	;# 
  4721  1E37                     	;# 
  4722  1E8F                     	;# 
  4723  1E90                     	;# 
  4724  1E91                     	;# 
  4725  1E92                     	;# 
  4726  1E93                     	;# 
  4727  1E9C                     	;# 
  4728  1EA1                     	;# 
  4729  1EA2                     	;# 
  4730  1EB1                     	;# 
  4731  1EBB                     	;# 
  4732  1EBC                     	;# 
  4733  1EBD                     	;# 
  4734  1EBE                     	;# 
  4735  1EC3                     	;# 
  4736  1EC5                     	;# 
  4737  1EC6                     	;# 
  4738  1EC7                     	;# 
  4739  1EC8                     	;# 
  4740  1EC9                     	;# 
  4741  1ECA                     	;# 
  4742  1ECB                     	;# 
  4743  1ECC                     	;# 
  4744  1ECD                     	;# 
  4745  1ECE                     	;# 
  4746  1F10                     	;# 
  4747  1F11                     	;# 
  4748  1F12                     	;# 
  4749  1F13                     	;# 
  4750  1F14                     	;# 
  4751  1F15                     	;# 
  4752  1F16                     	;# 
  4753  1F17                     	;# 
  4754  1F18                     	;# 
  4755  1F19                     	;# 
  4756  1F1A                     	;# 
  4757  1F1B                     	;# 
  4758  1F1C                     	;# 
  4759  1F1D                     	;# 
  4760  1F1E                     	;# 
  4761  1F1F                     	;# 
  4762  1F20                     	;# 
  4763  1F21                     	;# 
  4764  1F22                     	;# 
  4765  1F23                     	;# 
  4766  1F24                     	;# 
  4767  1F25                     	;# 
  4768  1F26                     	;# 
  4769  1F27                     	;# 
  4770  1F28                     	;# 
  4771  1F29                     	;# 
  4772  1F2A                     	;# 
  4773  1F2B                     	;# 
  4774  1F2C                     	;# 
  4775  1F2D                     	;# 
  4776  1F2E                     	;# 
  4777  1F2F                     	;# 
  4778  1F30                     	;# 
  4779  1F31                     	;# 
  4780  1F32                     	;# 
  4781  1F38                     	;# 
  4782  1F39                     	;# 
  4783  1F3A                     	;# 
  4784  1F3B                     	;# 
  4785  1F3C                     	;# 
  4786  1F3D                     	;# 
  4787  1F3E                     	;# 
  4788  1F3F                     	;# 
  4789  1F43                     	;# 
  4790  1F44                     	;# 
  4791  1F45                     	;# 
  4792  1F46                     	;# 
  4793  1F47                     	;# 
  4794  1F48                     	;# 
  4795  1F49                     	;# 
  4796  1F4A                     	;# 
  4797  1F4E                     	;# 
  4798  1F4F                     	;# 
  4799  1F50                     	;# 
  4800  1F51                     	;# 
  4801  1F52                     	;# 
  4802  1F53                     	;# 
  4803  1F54                     	;# 
  4804  1F55                     	;# 
  4805  1F59                     	;# 
  4806  1F5A                     	;# 
  4807  1F5B                     	;# 
  4808  1F5C                     	;# 
  4809  1F5D                     	;# 
  4810  1F64                     	;# 
  4811  1F65                     	;# 
  4812  1F66                     	;# 
  4813  1F67                     	;# 
  4814  1F68                     	;# 
  4815  1F69                     	;# 
  4816  1F6A                     	;# 
  4817  1F6B                     	;# 
  4818  1FE4                     	;# 
  4819  1FE5                     	;# 
  4820  1FE6                     	;# 
  4821  1FE7                     	;# 
  4822  1FE8                     	;# 
  4823  1FE8                     	;# 
  4824  1FE9                     	;# 
  4825  1FEA                     	;# 
  4826  1FEB                     	;# 
  4827  1FED                     	;# 
  4828  1FEE                     	;# 
  4829  1FEF                     	;# 
  4830  0000                     	;# 
  4831  0001                     	;# 
  4832  0002                     	;# 
  4833  0003                     	;# 
  4834  0004                     	;# 
  4835  0005                     	;# 
  4836  0006                     	;# 
  4837  0007                     	;# 
  4838  0008                     	;# 
  4839  0009                     	;# 
  4840  000A                     	;# 
  4841  000B                     	;# 
  4842  000C                     	;# 
  4843  000D                     	;# 
  4844  000E                     	;# 
  4845  000F                     	;# 
  4846  0010                     	;# 
  4847  0012                     	;# 
  4848  0013                     	;# 
  4849  0014                     	;# 
  4850  0015                     	;# 
  4851  0016                     	;# 
  4852  0018                     	;# 
  4853  0019                     	;# 
  4854  001A                     	;# 
  4855  001B                     	;# 
  4856  001C                     	;# 
  4857  009B                     	;# 
  4858  009B                     	;# 
  4859  009C                     	;# 
  4860  009D                     	;# 
  4861  009E                     	;# 
  4862  009F                     	;# 
  4863  0119                     	;# 
  4864  0119                     	;# 
  4865  0119                     	;# 
  4866  011A                     	;# 
  4867  011A                     	;# 
  4868  011A                     	;# 
  4869  011B                     	;# 
  4870  011B                     	;# 
  4871  011B                     	;# 
  4872  011B                     	;# 
  4873  011B                     	;# 
  4874  011C                     	;# 
  4875  011C                     	;# 
  4876  011C                     	;# 
  4877  011D                     	;# 
  4878  011D                     	;# 
  4879  011D                     	;# 
  4880  011E                     	;# 
  4881  011E                     	;# 
  4882  011E                     	;# 
  4883  011F                     	;# 
  4884  011F                     	;# 
  4885  011F                     	;# 
  4886  011F                     	;# 
  4887  011F                     	;# 
  4888  018C                     	;# 
  4889  018D                     	;# 
  4890  018E                     	;# 
  4891  018F                     	;# 
  4892  0190                     	;# 
  4893  0191                     	;# 
  4894  0192                     	;# 
  4895  0196                     	;# 
  4896  0197                     	;# 
  4897  0198                     	;# 
  4898  0199                     	;# 
  4899  019A                     	;# 
  4900  019B                     	;# 
  4901  019C                     	;# 
  4902  020C                     	;# 
  4903  020C                     	;# 
  4904  020D                     	;# 
  4905  020E                     	;# 
  4906  020F                     	;# 
  4907  020F                     	;# 
  4908  0210                     	;# 
  4909  0210                     	;# 
  4910  0211                     	;# 
  4911  0211                     	;# 
  4912  028C                     	;# 
  4913  028C                     	;# 
  4914  028D                     	;# 
  4915  028D                     	;# 
  4916  028E                     	;# 
  4917  028F                     	;# 
  4918  0290                     	;# 
  4919  0291                     	;# 
  4920  030C                     	;# 
  4921  030C                     	;# 
  4922  030D                     	;# 
  4923  030E                     	;# 
  4924  030F                     	;# 
  4925  0310                     	;# 
  4926  0310                     	;# 
  4927  0311                     	;# 
  4928  0312                     	;# 
  4929  0313                     	;# 
  4930  0314                     	;# 
  4931  0315                     	;# 
  4932  0316                     	;# 
  4933  0318                     	;# 
  4934  0319                     	;# 
  4935  031A                     	;# 
  4936  031C                     	;# 
  4937  031D                     	;# 
  4938  031E                     	;# 
  4939  038C                     	;# 
  4940  038D                     	;# 
  4941  038E                     	;# 
  4942  058C                     	;# 
  4943  058C                     	;# 
  4944  058D                     	;# 
  4945  058E                     	;# 
  4946  058F                     	;# 
  4947  058F                     	;# 
  4948  0590                     	;# 
  4949  0591                     	;# 
  4950  0592                     	;# 
  4951  0593                     	;# 
  4952  059C                     	;# 
  4953  059C                     	;# 
  4954  059D                     	;# 
  4955  059D                     	;# 
  4956  059E                     	;# 
  4957  059F                     	;# 
  4958  060C                     	;# 
  4959  060D                     	;# 
  4960  060E                     	;# 
  4961  060F                     	;# 
  4962  0610                     	;# 
  4963  0611                     	;# 
  4964  0612                     	;# 
  4965  0613                     	;# 
  4966  0614                     	;# 
  4967  070C                     	;# 
  4968  070D                     	;# 
  4969  070E                     	;# 
  4970  070F                     	;# 
  4971  0710                     	;# 
  4972  0711                     	;# 
  4973  0712                     	;# 
  4974  0713                     	;# 
  4975  0716                     	;# 
  4976  0717                     	;# 
  4977  0718                     	;# 
  4978  0719                     	;# 
  4979  071A                     	;# 
  4980  071B                     	;# 
  4981  071C                     	;# 
  4982  071D                     	;# 
  4983  0796                     	;# 
  4984  0797                     	;# 
  4985  0798                     	;# 
  4986  0799                     	;# 
  4987  079A                     	;# 
  4988  079B                     	;# 
  4989  080C                     	;# 
  4990  080D                     	;# 
  4991  080E                     	;# 
  4992  080F                     	;# 
  4993  0810                     	;# 
  4994  0811                     	;# 
  4995  0812                     	;# 
  4996  0813                     	;# 
  4997  0814                     	;# 
  4998  081A                     	;# 
  4999  081A                     	;# 
  5000  081B                     	;# 
  5001  081C                     	;# 
  5002  081C                     	;# 
  5003  081D                     	;# 
  5004  081E                     	;# 
  5005  081F                     	;# 
  5006  088C                     	;# 
  5007  088D                     	;# 
  5008  088E                     	;# 
  5009  088F                     	;# 
  5010  0890                     	;# 
  5011  0891                     	;# 
  5012  0892                     	;# 
  5013  0893                     	;# 
  5014  0895                     	;# 
  5015  0896                     	;# 
  5016  090C                     	;# 
  5017  090E                     	;# 
  5018  090F                     	;# 
  5019  091F                     	;# 
  5020  098F                     	;# 
  5021  098F                     	;# 
  5022  0990                     	;# 
  5023  0991                     	;# 
  5024  0992                     	;# 
  5025  0993                     	;# 
  5026  0994                     	;# 
  5027  0995                     	;# 
  5028  0996                     	;# 
  5029  0997                     	;# 
  5030  0A19                     	;# 
  5031  0A19                     	;# 
  5032  0A1A                     	;# 
  5033  0A1A                     	;# 
  5034  0A1B                     	;# 
  5035  0A1B                     	;# 
  5036  0A1B                     	;# 
  5037  0A1C                     	;# 
  5038  0A1C                     	;# 
  5039  0A1D                     	;# 
  5040  0A1D                     	;# 
  5041  0A1E                     	;# 
  5042  0A1E                     	;# 
  5043  0A1F                     	;# 
  5044  0A1F                     	;# 
  5045  0A1F                     	;# 
  5046  1E0F                     	;# 
  5047  1E10                     	;# 
  5048  1E11                     	;# 
  5049  1E12                     	;# 
  5050  1E13                     	;# 
  5051  1E14                     	;# 
  5052  1E15                     	;# 
  5053  1E16                     	;# 
  5054  1E17                     	;# 
  5055  1E18                     	;# 
  5056  1E19                     	;# 
  5057  1E1A                     	;# 
  5058  1E1B                     	;# 
  5059  1E1C                     	;# 
  5060  1E1D                     	;# 
  5061  1E1E                     	;# 
  5062  1E1F                     	;# 
  5063  1E20                     	;# 
  5064  1E21                     	;# 
  5065  1E22                     	;# 
  5066  1E23                     	;# 
  5067  1E24                     	;# 
  5068  1E25                     	;# 
  5069  1E26                     	;# 
  5070  1E27                     	;# 
  5071  1E28                     	;# 
  5072  1E29                     	;# 
  5073  1E2A                     	;# 
  5074  1E2B                     	;# 
  5075  1E2C                     	;# 
  5076  1E2D                     	;# 
  5077  1E2E                     	;# 
  5078  1E2F                     	;# 
  5079  1E30                     	;# 
  5080  1E31                     	;# 
  5081  1E32                     	;# 
  5082  1E33                     	;# 
  5083  1E34                     	;# 
  5084  1E35                     	;# 
  5085  1E36                     	;# 
  5086  1E37                     	;# 
  5087  1E8F                     	;# 
  5088  1E90                     	;# 
  5089  1E91                     	;# 
  5090  1E92                     	;# 
  5091  1E93                     	;# 
  5092  1E9C                     	;# 
  5093  1EA1                     	;# 
  5094  1EA2                     	;# 
  5095  1EB1                     	;# 
  5096  1EBB                     	;# 
  5097  1EBC                     	;# 
  5098  1EBD                     	;# 
  5099  1EBE                     	;# 
  5100  1EC3                     	;# 
  5101  1EC5                     	;# 
  5102  1EC6                     	;# 
  5103  1EC7                     	;# 
  5104  1EC8                     	;# 
  5105  1EC9                     	;# 
  5106  1ECA                     	;# 
  5107  1ECB                     	;# 
  5108  1ECC                     	;# 
  5109  1ECD                     	;# 
  5110  1ECE                     	;# 
  5111  1F10                     	;# 
  5112  1F11                     	;# 
  5113  1F12                     	;# 
  5114  1F13                     	;# 
  5115  1F14                     	;# 
  5116  1F15                     	;# 
  5117  1F16                     	;# 
  5118  1F17                     	;# 
  5119  1F18                     	;# 
  5120  1F19                     	;# 
  5121  1F1A                     	;# 
  5122  1F1B                     	;# 
  5123  1F1C                     	;# 
  5124  1F1D                     	;# 
  5125  1F1E                     	;# 
  5126  1F1F                     	;# 
  5127  1F20                     	;# 
  5128  1F21                     	;# 
  5129  1F22                     	;# 
  5130  1F23                     	;# 
  5131  1F24                     	;# 
  5132  1F25                     	;# 
  5133  1F26                     	;# 
  5134  1F27                     	;# 
  5135  1F28                     	;# 
  5136  1F29                     	;# 
  5137  1F2A                     	;# 
  5138  1F2B                     	;# 
  5139  1F2C                     	;# 
  5140  1F2D                     	;# 
  5141  1F2E                     	;# 
  5142  1F2F                     	;# 
  5143  1F30                     	;# 
  5144  1F31                     	;# 
  5145  1F32                     	;# 
  5146  1F38                     	;# 
  5147  1F39                     	;# 
  5148  1F3A                     	;# 
  5149  1F3B                     	;# 
  5150  1F3C                     	;# 
  5151  1F3D                     	;# 
  5152  1F3E                     	;# 
  5153  1F3F                     	;# 
  5154  1F43                     	;# 
  5155  1F44                     	;# 
  5156  1F45                     	;# 
